{
  "address": "0x49196Ba5944f7EE6c28F518293951316DC30fb35",
  "abi": [
    {
      "inputs": [
        {
          "internalType": "address",
          "name": "_initialOwner",
          "type": "address"
        },
        {
          "internalType": "address",
          "name": "_kycVerifier",
          "type": "address"
        }
      ],
      "stateMutability": "nonpayable",
      "type": "constructor"
    },
    {
      "inputs": [],
      "name": "CompanyAlreadyRegistered",
      "type": "error"
    },
    {
      "inputs": [],
      "name": "CompanyNotFound",
      "type": "error"
    },
    {
      "inputs": [],
      "name": "EmptyString",
      "type": "error"
    },
    {
      "inputs": [],
      "name": "InvalidAddress",
      "type": "error"
    },
    {
      "inputs": [],
      "name": "InvalidStatus",
      "type": "error"
    },
    {
      "inputs": [],
      "name": "NotAuthorized",
      "type": "error"
    },
    {
      "inputs": [],
      "name": "NotKYCVerifier",
      "type": "error"
    },
    {
      "inputs": [
        {
          "internalType": "address",
          "name": "owner",
          "type": "address"
        }
      ],
      "name": "OwnableInvalidOwner",
      "type": "error"
    },
    {
      "inputs": [
        {
          "internalType": "address",
          "name": "account",
          "type": "address"
        }
      ],
      "name": "OwnableUnauthorizedAccount",
      "type": "error"
    },
    {
      "inputs": [],
      "name": "ReentrancyGuardReentrantCall",
      "type": "error"
    },
    {
      "anonymous": false,
      "inputs": [
        {
          "indexed": true,
          "internalType": "address",
          "name": "companyAddress",
          "type": "address"
        },
        {
          "indexed": false,
          "internalType": "string",
          "name": "name",
          "type": "string"
        },
        {
          "indexed": false,
          "internalType": "uint256",
          "name": "timestamp",
          "type": "uint256"
        }
      ],
      "name": "CompanyRegistered",
      "type": "event"
    },
    {
      "anonymous": false,
      "inputs": [
        {
          "indexed": true,
          "internalType": "address",
          "name": "companyAddress",
          "type": "address"
        },
        {
          "indexed": false,
          "internalType": "enum CompanyRegistry.CompanyStatus",
          "name": "oldStatus",
          "type": "uint8"
        },
        {
          "indexed": false,
          "internalType": "enum CompanyRegistry.CompanyStatus",
          "name": "newStatus",
          "type": "uint8"
        },
        {
          "indexed": false,
          "internalType": "uint256",
          "name": "timestamp",
          "type": "uint256"
        }
      ],
      "name": "CompanyStatusChanged",
      "type": "event"
    },
    {
      "anonymous": false,
      "inputs": [
        {
          "indexed": true,
          "internalType": "address",
          "name": "companyAddress",
          "type": "address"
        },
        {
          "indexed": false,
          "internalType": "string",
          "name": "name",
          "type": "string"
        },
        {
          "indexed": false,
          "internalType": "string",
          "name": "country",
          "type": "string"
        },
        {
          "indexed": false,
          "internalType": "string",
          "name": "industry",
          "type": "string"
        },
        {
          "indexed": false,
          "internalType": "uint256",
          "name": "timestamp",
          "type": "uint256"
        }
      ],
      "name": "CompanyUpdated",
      "type": "event"
    },
    {
      "anonymous": false,
      "inputs": [
        {
          "indexed": true,
          "internalType": "address",
          "name": "companyAddress",
          "type": "address"
        },
        {
          "indexed": false,
          "internalType": "uint256",
          "name": "timestamp",
          "type": "uint256"
        }
      ],
      "name": "CompanyVerified",
      "type": "event"
    },
    {
      "anonymous": false,
      "inputs": [
        {
          "indexed": true,
          "internalType": "address",
          "name": "oldVerifier",
          "type": "address"
        },
        {
          "indexed": true,
          "internalType": "address",
          "name": "newVerifier",
          "type": "address"
        },
        {
          "indexed": false,
          "internalType": "uint256",
          "name": "timestamp",
          "type": "uint256"
        }
      ],
      "name": "KYCVerifierChanged",
      "type": "event"
    },
    {
      "anonymous": false,
      "inputs": [
        {
          "indexed": true,
          "internalType": "address",
          "name": "previousOwner",
          "type": "address"
        },
        {
          "indexed": true,
          "internalType": "address",
          "name": "newOwner",
          "type": "address"
        }
      ],
      "name": "OwnershipTransferred",
      "type": "event"
    },
    {
      "anonymous": false,
      "inputs": [
        {
          "indexed": true,
          "internalType": "address",
          "name": "companyAddress",
          "type": "address"
        },
        {
          "indexed": false,
          "internalType": "uint256",
          "name": "amount",
          "type": "uint256"
        },
        {
          "indexed": false,
          "internalType": "uint256",
          "name": "timestamp",
          "type": "uint256"
        }
      ],
      "name": "TotalPaidUpdated",
      "type": "event"
    },
    {
      "anonymous": false,
      "inputs": [
        {
          "indexed": true,
          "internalType": "address",
          "name": "companyAddress",
          "type": "address"
        },
        {
          "indexed": false,
          "internalType": "uint256",
          "name": "newCount",
          "type": "uint256"
        },
        {
          "indexed": false,
          "internalType": "uint256",
          "name": "timestamp",
          "type": "uint256"
        }
      ],
      "name": "WorkerCountUpdated",
      "type": "event"
    },
    {
      "inputs": [
        {
          "internalType": "address",
          "name": "_companyAddress",
          "type": "address"
        },
        {
          "internalType": "enum CompanyRegistry.CompanyStatus",
          "name": "_newStatus",
          "type": "uint8"
        }
      ],
      "name": "changeCompanyStatus",
      "outputs": [],
      "stateMutability": "nonpayable",
      "type": "function"
    },
    {
      "inputs": [
        {
          "internalType": "address",
          "name": "",
          "type": "address"
        }
      ],
      "name": "companies",
      "outputs": [
        {
          "internalType": "address",
          "name": "companyAddress",
          "type": "address"
        },
        {
          "internalType": "string",
          "name": "name",
          "type": "string"
        },
        {
          "internalType": "string",
          "name": "legalId",
          "type": "string"
        },
        {
          "internalType": "string",
          "name": "country",
          "type": "string"
        },
        {
          "internalType": "string",
          "name": "industry",
          "type": "string"
        },
        {
          "internalType": "uint256",
          "name": "registeredAt",
          "type": "uint256"
        },
        {
          "internalType": "uint256",
          "name": "verifiedAt",
          "type": "uint256"
        },
        {
          "internalType": "enum CompanyRegistry.CompanyStatus",
          "name": "status",
          "type": "uint8"
        },
        {
          "internalType": "uint256",
          "name": "totalWorkers",
          "type": "uint256"
        },
        {
          "internalType": "uint256",
          "name": "totalPaid",
          "type": "uint256"
        }
      ],
      "stateMutability": "view",
      "type": "function"
    },
    {
      "inputs": [],
      "name": "getAllCompanyAddresses",
      "outputs": [
        {
          "internalType": "address[]",
          "name": "",
          "type": "address[]"
        }
      ],
      "stateMutability": "view",
      "type": "function"
    },
    {
      "inputs": [
        {
          "internalType": "enum CompanyRegistry.CompanyStatus",
          "name": "_status",
          "type": "uint8"
        }
      ],
      "name": "getCompaniesByStatus",
      "outputs": [
        {
          "internalType": "address[]",
          "name": "",
          "type": "address[]"
        }
      ],
      "stateMutability": "view",
      "type": "function"
    },
    {
      "inputs": [
        {
          "internalType": "address",
          "name": "_companyAddress",
          "type": "address"
        }
      ],
      "name": "getCompany",
      "outputs": [
        {
          "components": [
            {
              "internalType": "address",
              "name": "companyAddress",
              "type": "address"
            },
            {
              "internalType": "string",
              "name": "name",
              "type": "string"
            },
            {
              "internalType": "string",
              "name": "legalId",
              "type": "string"
            },
            {
              "internalType": "string",
              "name": "country",
              "type": "string"
            },
            {
              "internalType": "string",
              "name": "industry",
              "type": "string"
            },
            {
              "internalType": "uint256",
              "name": "registeredAt",
              "type": "uint256"
            },
            {
              "internalType": "uint256",
              "name": "verifiedAt",
              "type": "uint256"
            },
            {
              "internalType": "enum CompanyRegistry.CompanyStatus",
              "name": "status",
              "type": "uint8"
            },
            {
              "internalType": "uint256",
              "name": "totalWorkers",
              "type": "uint256"
            },
            {
              "internalType": "uint256",
              "name": "totalPaid",
              "type": "uint256"
            }
          ],
          "internalType": "struct CompanyRegistry.Company",
          "name": "",
          "type": "tuple"
        }
      ],
      "stateMutability": "view",
      "type": "function"
    },
    {
      "inputs": [
        {
          "internalType": "address",
          "name": "_companyAddress",
          "type": "address"
        }
      ],
      "name": "getCompanyCountry",
      "outputs": [
        {
          "internalType": "string",
          "name": "",
          "type": "string"
        }
      ],
      "stateMutability": "view",
      "type": "function"
    },
    {
      "inputs": [
        {
          "internalType": "address",
          "name": "_companyAddress",
          "type": "address"
        }
      ],
      "name": "getCompanyIndustry",
      "outputs": [
        {
          "internalType": "string",
          "name": "",
          "type": "string"
        }
      ],
      "stateMutability": "view",
      "type": "function"
    },
    {
      "inputs": [
        {
          "internalType": "address",
          "name": "_companyAddress",
          "type": "address"
        }
      ],
      "name": "getCompanyLegalId",
      "outputs": [
        {
          "internalType": "string",
          "name": "",
          "type": "string"
        }
      ],
      "stateMutability": "view",
      "type": "function"
    },
    {
      "inputs": [
        {
          "internalType": "address",
          "name": "_companyAddress",
          "type": "address"
        }
      ],
      "name": "getCompanyName",
      "outputs": [
        {
          "internalType": "string",
          "name": "",
          "type": "string"
        }
      ],
      "stateMutability": "view",
      "type": "function"
    },
    {
      "inputs": [
        {
          "internalType": "address",
          "name": "_companyAddress",
          "type": "address"
        }
      ],
      "name": "getCompanyRegisteredAt",
      "outputs": [
        {
          "internalType": "uint256",
          "name": "",
          "type": "uint256"
        }
      ],
      "stateMutability": "view",
      "type": "function"
    },
    {
      "inputs": [
        {
          "internalType": "address",
          "name": "_companyAddress",
          "type": "address"
        }
      ],
      "name": "getCompanyStatus",
      "outputs": [
        {
          "internalType": "enum CompanyRegistry.CompanyStatus",
          "name": "",
          "type": "uint8"
        }
      ],
      "stateMutability": "view",
      "type": "function"
    },
    {
      "inputs": [
        {
          "internalType": "address",
          "name": "_companyAddress",
          "type": "address"
        }
      ],
      "name": "getCompanyTotalWorkers",
      "outputs": [
        {
          "internalType": "uint256",
          "name": "",
          "type": "uint256"
        }
      ],
      "stateMutability": "view",
      "type": "function"
    },
    {
      "inputs": [
        {
          "internalType": "uint256",
          "name": "_offset",
          "type": "uint256"
        },
        {
          "internalType": "uint256",
          "name": "_limit",
          "type": "uint256"
        }
      ],
      "name": "getPaginatedCompanies",
      "outputs": [
        {
          "components": [
            {
              "internalType": "address",
              "name": "companyAddress",
              "type": "address"
            },
            {
              "internalType": "string",
              "name": "name",
              "type": "string"
            },
            {
              "internalType": "string",
              "name": "legalId",
              "type": "string"
            },
            {
              "internalType": "string",
              "name": "country",
              "type": "string"
            },
            {
              "internalType": "string",
              "name": "industry",
              "type": "string"
            },
            {
              "internalType": "uint256",
              "name": "registeredAt",
              "type": "uint256"
            },
            {
              "internalType": "uint256",
              "name": "verifiedAt",
              "type": "uint256"
            },
            {
              "internalType": "enum CompanyRegistry.CompanyStatus",
              "name": "status",
              "type": "uint8"
            },
            {
              "internalType": "uint256",
              "name": "totalWorkers",
              "type": "uint256"
            },
            {
              "internalType": "uint256",
              "name": "totalPaid",
              "type": "uint256"
            }
          ],
          "internalType": "struct CompanyRegistry.Company[]",
          "name": "",
          "type": "tuple[]"
        }
      ],
      "stateMutability": "view",
      "type": "function"
    },
    {
      "inputs": [],
      "name": "getTotalCompanies",
      "outputs": [
        {
          "internalType": "uint256",
          "name": "",
          "type": "uint256"
        }
      ],
      "stateMutability": "view",
      "type": "function"
    },
    {
      "inputs": [
        {
          "internalType": "address",
          "name": "_companyAddress",
          "type": "address"
        }
      ],
      "name": "isCompany",
      "outputs": [
        {
          "internalType": "bool",
          "name": "",
          "type": "bool"
        }
      ],
      "stateMutability": "view",
      "type": "function"
    },
    {
      "inputs": [
        {
          "internalType": "address",
          "name": "_companyAddress",
          "type": "address"
        }
      ],
      "name": "isVerifiedCompany",
      "outputs": [
        {
          "internalType": "bool",
          "name": "",
          "type": "bool"
        }
      ],
      "stateMutability": "view",
      "type": "function"
    },
    {
      "inputs": [],
      "name": "kycVerifier",
      "outputs": [
        {
          "internalType": "address",
          "name": "",
          "type": "address"
        }
      ],
      "stateMutability": "view",
      "type": "function"
    },
    {
      "inputs": [],
      "name": "owner",
      "outputs": [
        {
          "internalType": "address",
          "name": "",
          "type": "address"
        }
      ],
      "stateMutability": "view",
      "type": "function"
    },
    {
      "inputs": [
        {
          "internalType": "string",
          "name": "_name",
          "type": "string"
        },
        {
          "internalType": "string",
          "name": "_legalId",
          "type": "string"
        },
        {
          "internalType": "string",
          "name": "_country",
          "type": "string"
        },
        {
          "internalType": "string",
          "name": "_industry",
          "type": "string"
        }
      ],
      "name": "registerCompany",
      "outputs": [],
      "stateMutability": "nonpayable",
      "type": "function"
    },
    {
      "inputs": [],
      "name": "renounceOwnership",
      "outputs": [],
      "stateMutability": "nonpayable",
      "type": "function"
    },
    {
      "inputs": [
        {
          "internalType": "address",
          "name": "_newVerifier",
          "type": "address"
        }
      ],
      "name": "setKYCVerifier",
      "outputs": [],
      "stateMutability": "nonpayable",
      "type": "function"
    },
    {
      "inputs": [
        {
          "internalType": "address",
          "name": "newOwner",
          "type": "address"
        }
      ],
      "name": "transferOwnership",
      "outputs": [],
      "stateMutability": "nonpayable",
      "type": "function"
    },
    {
      "inputs": [
        {
          "internalType": "string",
          "name": "_name",
          "type": "string"
        },
        {
          "internalType": "string",
          "name": "_country",
          "type": "string"
        },
        {
          "internalType": "string",
          "name": "_industry",
          "type": "string"
        }
      ],
      "name": "updateCompanyInfo",
      "outputs": [],
      "stateMutability": "nonpayable",
      "type": "function"
    },
    {
      "inputs": [
        {
          "internalType": "address",
          "name": "_companyAddress",
          "type": "address"
        },
        {
          "internalType": "uint256",
          "name": "_amount",
          "type": "uint256"
        }
      ],
      "name": "updateTotalPaid",
      "outputs": [],
      "stateMutability": "nonpayable",
      "type": "function"
    },
    {
      "inputs": [
        {
          "internalType": "address",
          "name": "_companyAddress",
          "type": "address"
        },
        {
          "internalType": "uint256",
          "name": "_newCount",
          "type": "uint256"
        }
      ],
      "name": "updateWorkerCount",
      "outputs": [],
      "stateMutability": "nonpayable",
      "type": "function"
    },
    {
      "inputs": [
        {
          "internalType": "address",
          "name": "_companyAddress",
          "type": "address"
        }
      ],
      "name": "verifyCompany",
      "outputs": [],
      "stateMutability": "nonpayable",
      "type": "function"
    }
  ],
  "transactionHash": "0xc8e1b8f201860be481854adeaba87fe81ea484a0f474e0f9d2fe50fafda6c77f",
  "args": [
    "0x3231E907C51cd769857477BC5494Ee0C26E5104c",
    "0x3231E907C51cd769857477BC5494Ee0C26E5104c"
  ],
  "numDeployments": 3,
  "solcInputHash": "f5c0bbcf5129c5be51de7cdb6a36ed4a",
  "bytecode": "0x608060405234801562000010575f80fd5b50604051620024523803806200245283398101604081905262000033916200014c565b816001600160a01b0381166200006257604051631e4fbdf760e01b81525f600482015260240160405180910390fd5b6200006d81620000e1565b5060017f9b779b17422d0df92223018b32b4d1fa46e071723d6817e2486d003becc55f00556001600160a01b038116620000ba5760405163e6c4247b60e01b815260040160405180910390fd5b600480546001600160a01b0319166001600160a01b03929092169190911790555062000182565b5f80546001600160a01b038381166001600160a01b0319831681178455604051919092169283917f8be0079c531659141344cd1fd0a4f28419497f9722a3daafe3b4186f6b6457e09190a35050565b80516001600160a01b038116811462000147575f80fd5b919050565b5f80604083850312156200015e575f80fd5b620001698362000130565b9150620001796020840162000130565b90509250929050565b6122c280620001905f395ff3fe608060405234801561000f575f80fd5b5060043610610187575f3560e01c80638dc01092116100d9578063d17f641711610093578063e8a733a21161006e578063e8a733a2146103e6578063e9b4dff6146103f9578063f2fde38b14610424578063f592146d14610437575f80fd5b8063d17f6417146103ad578063d525b36e146103c0578063da35bf83146103d3575f80fd5b80638dc010921461032157806396332fb314610334578063a0406ce214610347578063a4ef703114610374578063b937e7cc14610387578063bbc843981461039a575f80fd5b8063565e93e511610144578063741e244e1161011f578063741e244e146102c25780637eee8507146102d55780638b999def146102e85780638da5cb5b146102fd575f80fd5b8063565e93e51461027857806362bc56e614610298578063715018a6146102b8575f80fd5b806318c6cb6a1461018b5780631af328e6146101c95780632296f80e146101e9578063355e6ce81461022457806346db476a1461024d578063486b1b1114610270575b5f80fd5b6101b6610199366004611b06565b6001600160a01b03165f9081526001602052604090206005015490565b6040519081526020015b60405180910390f35b6101dc6101d7366004611b1f565b61044a565b6040516101c09190611c74565b6102176101f7366004611b06565b6001600160a01b03165f9081526001602052604090206007015460ff1690565b6040516101c09190611cd6565b610237610232366004611b06565b61083a565b6040516101c09a99989796959493929190611ce4565b61026061025b366004611b06565b610aad565b60405190151581526020016101c0565b6101b6610b0a565b61028b610286366004611b06565b610b1a565b6040516101c09190611d7a565b6102ab6102a6366004611b06565b610bc6565b6040516101c09190611d8c565b6102c0610ed8565b005b61028b6102d0366004611b06565b610eeb565b61028b6102e3366004611b06565b610f14565b6102f0610f3d565b6040516101c09190611d9e565b5f546001600160a01b03165b6040516001600160a01b0390911681526020016101c0565b6102c061032f366004611df8565b610fe0565b6102c0610342366004611e29565b611105565b610260610355366004611b06565b6001600160a01b039081165f9081526001602052604090205416151590565b61028b610382366004611b06565b6111b3565b600454610309906001600160a01b031681565b6102f06103a8366004611e51565b6111dd565b6102c06103bb366004611b06565b61135f565b6102c06103ce366004611e29565b6113f1565b6102c06103e1366004611f07565b611480565b6102c06103f4366004611f89565b611595565b6101b6610407366004611b06565b6001600160a01b03165f9081526001602052604090206008015490565b6102c0610432366004611b06565b6117b2565b6102c0610445366004611b06565b6117f4565b60605f610457600261191e565b905080841061049957604080515f8082526020820190925290610490565b61047d611a84565b8152602001906001900390816104755790505b50915050610834565b5f6104a48486612043565b9050818111156104b15750805b5f6104bc8683612056565b67ffffffffffffffff8111156104d4576104d4611e6a565b60405190808252806020026020018201604052801561050d57816020015b6104fa611a84565b8152602001906001900390816104f25790505b5090505f865b8381101561082c5760015f610529600284611927565b6001600160a01b03908116825260208083019390935260409182015f208251610140810190935280549091168252600181018054929391929184019161056e90612069565b80601f016020809104026020016040519081016040528092919081815260200182805461059a90612069565b80156105e55780601f106105bc576101008083540402835291602001916105e5565b820191905f5260205f20905b8154815290600101906020018083116105c857829003601f168201915b505050505081526020016002820180546105fe90612069565b80601f016020809104026020016040519081016040528092919081815260200182805461062a90612069565b80156106755780601f1061064c57610100808354040283529160200191610675565b820191905f5260205f20905b81548152906001019060200180831161065857829003601f168201915b5050505050815260200160038201805461068e90612069565b80601f01602080910402602001604051908101604052809291908181526020018280546106ba90612069565b80156107055780601f106106dc57610100808354040283529160200191610705565b820191905f5260205f20905b8154815290600101906020018083116106e857829003601f168201915b5050505050815260200160048201805461071e90612069565b80601f016020809104026020016040519081016040528092919081815260200182805461074a90612069565b80156107955780601f1061076c57610100808354040283529160200191610795565b820191905f5260205f20905b81548152906001019060200180831161077857829003601f168201915b50505091835250506005820154602082015260068201546040820152600782015460609091019060ff1660038111156107d0576107d0611b82565b60038111156107e1576107e1611b82565b81526020016008820154815260200160098201548152505083838151811061080b5761080b6120a1565b60200260200101819052508180610821906120b5565b925050600101610513565b509093505050505b92915050565b600160208190525f9182526040909120805491810180546001600160a01b039093169261086690612069565b80601f016020809104026020016040519081016040528092919081815260200182805461089290612069565b80156108dd5780601f106108b4576101008083540402835291602001916108dd565b820191905f5260205f20905b8154815290600101906020018083116108c057829003601f168201915b5050505050908060020180546108f290612069565b80601f016020809104026020016040519081016040528092919081815260200182805461091e90612069565b80156109695780601f1061094057610100808354040283529160200191610969565b820191905f5260205f20905b81548152906001019060200180831161094c57829003601f168201915b50505050509080600301805461097e90612069565b80601f01602080910402602001604051908101604052809291908181526020018280546109aa90612069565b80156109f55780601f106109cc576101008083540402835291602001916109f5565b820191905f5260205f20905b8154815290600101906020018083116109d857829003601f168201915b505050505090806004018054610a0a90612069565b80601f0160208091040260200160405190810160405280929190818152602001828054610a3690612069565b8015610a815780601f10610a5857610100808354040283529160200191610a81565b820191905f5260205f20905b815481529060010190602001808311610a6457829003601f168201915b50505060058401546006850154600786015460088701546009909701549596929591945060ff1692508a565b6001600160a01b038181165f9081526001602052604081205490911615801590610834575060016001600160a01b0383165f9081526001602052604090206007015460ff166003811115610b0357610b03611b82565b1492915050565b5f610b15600261191e565b905090565b6001600160a01b0381165f908152600160205260409020600201805460609190610b4390612069565b80601f0160208091040260200160405190810160405280929190818152602001828054610b6f90612069565b8015610bba5780601f10610b9157610100808354040283529160200191610bba565b820191905f5260205f20905b815481529060010190602001808311610b9d57829003601f168201915b50505050509050919050565b610bce611a84565b6001600160a01b038281165f9081526001602052604090205416610c05576040516302de3a2360e61b815260040160405180910390fd5b6001600160a01b038083165f908152600160208181526040928390208351610140810190945280549094168352908301805492939291840191610c4790612069565b80601f0160208091040260200160405190810160405280929190818152602001828054610c7390612069565b8015610cbe5780601f10610c9557610100808354040283529160200191610cbe565b820191905f5260205f20905b815481529060010190602001808311610ca157829003601f168201915b50505050508152602001600282018054610cd790612069565b80601f0160208091040260200160405190810160405280929190818152602001828054610d0390612069565b8015610d4e5780601f10610d2557610100808354040283529160200191610d4e565b820191905f5260205f20905b815481529060010190602001808311610d3157829003601f168201915b50505050508152602001600382018054610d6790612069565b80601f0160208091040260200160405190810160405280929190818152602001828054610d9390612069565b8015610dde5780601f10610db557610100808354040283529160200191610dde565b820191905f5260205f20905b815481529060010190602001808311610dc157829003601f168201915b50505050508152602001600482018054610df790612069565b80601f0160208091040260200160405190810160405280929190818152602001828054610e2390612069565b8015610e6e5780601f10610e4557610100808354040283529160200191610e6e565b820191905f5260205f20905b815481529060010190602001808311610e5157829003601f168201915b50505091835250506005820154602082015260068201546040820152600782015460609091019060ff166003811115610ea957610ea9611b82565b6003811115610eba57610eba611b82565b81526008820154602082015260099091015460409091015292915050565b610ee0611939565b610ee95f611965565b565b6001600160a01b0381165f908152600160205260409020600401805460609190610b4390612069565b6001600160a01b0381165f908152600160205260409020600301805460609190610b4390612069565b60605f610f4a600261191e565b90505f8167ffffffffffffffff811115610f6657610f66611e6a565b604051908082528060200260200182016040528015610f8f578160200160208202803683370190505b5090505f5b82811015610fd957610fa7600282611927565b828281518110610fb957610fb96120a1565b6001600160a01b0390921660209283029190910190910152600101610f94565b5092915050565b610fe86119b4565b5f546001600160a01b0316331480159061100d57506004546001600160a01b03163314155b1561102b5760405163ea8e4eb560e01b815260040160405180910390fd5b6001600160a01b038281165f9081526001602052604090205416611062576040516302de3a2360e61b815260040160405180910390fd5b6001600160a01b0382165f908152600160208190526040909120600701805460ff81169284929160ff1916908360038111156110a0576110a0611b82565b0217905550826001600160a01b03167f6377bb330d004f15ba03d091520260b67aafb71b737ba156fdbfc6090ca6afc28284426040516110e2939291906120cd565b60405180910390a25061110160015f8051602061226d83398151915255565b5050565b6001600160a01b038281165f908152600160205260409020541661113c576040516302de3a2360e61b815260040160405180910390fd5b6001600160a01b0382165f9081526001602052604081206009018054839290611166908490612043565b9091555050604080518281524260208201526001600160a01b038416917f5e51731f235fb936330cc3958f5b986f6ac2c80ae82935b8cd1eb1f8bd7dd2ec91015b60405180910390a25050565b6001600160a01b0381165f90815260016020819052604090912001805460609190610b4390612069565b60605f6111ea600261191e565b90505f805b828110156112625784600381111561120957611209611b82565b60015f611217600285611927565b6001600160a01b0316815260208101919091526040015f206007015460ff16600381111561124757611247611b82565b0361125a5781611256816120b5565b9250505b6001016111ef565b505f8167ffffffffffffffff81111561127d5761127d611e6a565b6040519080825280602002602001820160405280156112a6578160200160208202803683370190505b5090505f805b84811015611354578660038111156112c6576112c6611b82565b60015f6112d4600285611927565b6001600160a01b0316815260208101919091526040015f206007015460ff16600381111561130457611304611b82565b0361134c57611314600282611927565b838381518110611326576113266120a1565b6001600160a01b039092166020928302919091019091015281611348816120b5565b9250505b6001016112ac565b509095945050505050565b611367611939565b6001600160a01b03811661138e5760405163e6c4247b60e01b815260040160405180910390fd5b600480546001600160a01b038381166001600160a01b0319831681179093556040519116919082907f2d8c94424436c56408de6e8d4e27e7e8567c228ca8ed73bab05f35a7b0804a80906113e59042815260200190565b60405180910390a35050565b6001600160a01b038281165f9081526001602052604090205416611428576040516302de3a2360e61b815260040160405180910390fd5b6001600160a01b0382165f8181526001602052604090819020600801839055517f33cff696cc2f8f1cc6a032045849a34b6b9b77f6d56e06a3d9312197e2f0177d906111a79084904290918252602082015260400190565b6114886119b4565b335f908152600160205260409020546001600160a01b03166114bd576040516302de3a2360e61b815260040160405180910390fd5b82515f036114de5760405163ecd7b0d160e01b815260040160405180910390fd5b335f908152600160208190526040909120016114fa8482612141565b50335f9081526001602052604090206003016115168382612141565b50335f9081526001602052604090206004016115328282612141565b50336001600160a01b03167f9a276f5915a0d056bfd88c4ed954ad27c75675518994ddbf55dde128cc1aa95d848484426040516115729493929190612201565b60405180910390a261159060015f8051602061226d83398151915255565b505050565b61159d6119b4565b83515f036115be5760405163ecd7b0d160e01b815260040160405180910390fd5b82515f036115df5760405163ecd7b0d160e01b815260040160405180910390fd5b335f908152600160205260409020546001600160a01b03161561161557604051631936b76760e11b815260040160405180910390fd5b604051806101400160405280336001600160a01b031681526020018581526020018481526020018381526020018281526020014281526020015f81526020015f600381111561166657611666611b82565b81525f60208083018290526040928301829052338252600180825292909120835181546001600160a01b0319166001600160a01b039091161781559083015190918201906116b49082612141565b50604082015160028201906116c99082612141565b50606082015160038201906116de9082612141565b50608082015160048201906116f39082612141565b5060a0820151600582015560c0820151600682015560e082015160078201805460ff1916600183600381111561172b5761172b611b82565b02179055506101008201516008820155610120909101516009909101556117536002336119cf565b50336001600160a01b03167e78dab93f1aeefc09535aa58402d91dde97c29a340cd7a0a57e12529c94e214854260405161178e92919061224b565b60405180910390a26117ac60015f8051602061226d83398151915255565b50505050565b6117ba611939565b6001600160a01b0381166117e857604051631e4fbdf760e01b81525f60048201526024015b60405180910390fd5b6117f181611965565b50565b6117fc6119b4565b6004546001600160a01b0316331461182757604051630689919360e51b815260040160405180910390fd5b6001600160a01b038181165f908152600160205260409020541661185e576040516302de3a2360e61b815260040160405180910390fd5b6001600160a01b0381165f8181526001602081815260409283902060078101805460ff191690931790925542600690920182905591519081527f164493a733af47ed3cfda329ea04737c1faab773c14b51209ed1c70f5f9674fe910160405180910390a2806001600160a01b03167f6377bb330d004f15ba03d091520260b67aafb71b737ba156fdbfc6090ca6afc25f600142604051611900939291906120cd565b60405180910390a26117f160015f8051602061226d83398151915255565b5f610834825490565b5f61193283836119e3565b9392505050565b5f546001600160a01b03163314610ee95760405163118cdaa760e01b81523360048201526024016117df565b5f80546001600160a01b038381166001600160a01b0319831681178455604051919092169283917f8be0079c531659141344cd1fd0a4f28419497f9722a3daafe3b4186f6b6457e09190a35050565b6119bc611a09565b60025f8051602061226d83398151915255565b5f611932836001600160a01b038416611a38565b5f825f0182815481106119f8576119f86120a1565b905f5260205f200154905092915050565b5f8051602061226d83398151915254600203610ee957604051633ee5aeb560e01b815260040160405180910390fd5b5f818152600183016020526040812054611a7d57508154600181810184555f848152602080822090930184905584548482528286019093526040902091909155610834565b505f610834565b6040518061014001604052805f6001600160a01b03168152602001606081526020016060815260200160608152602001606081526020015f81526020015f81526020015f6003811115611ad957611ad9611b82565b81526020015f81526020015f81525090565b80356001600160a01b0381168114611b01575f80fd5b919050565b5f60208284031215611b16575f80fd5b61193282611aeb565b5f8060408385031215611b30575f80fd5b50508035926020909101359150565b5f81518084525f5b81811015611b6357602081850181015186830182015201611b47565b505f602082860101526020601f19601f83011685010191505092915050565b634e487b7160e01b5f52602160045260245ffd5b60048110611bb257634e487b7160e01b5f52602160045260245ffd5b9052565b80516001600160a01b031682525f6101406020830151816020860152611bde82860182611b3f565b91505060408301518482036040860152611bf88282611b3f565b91505060608301518482036060860152611c128282611b3f565b91505060808301518482036080860152611c2c8282611b3f565b91505060a083015160a085015260c083015160c085015260e0830151611c5560e0860182611b96565b5061010083810151908501526101209283015192909301919091525090565b5f60208083016020845280855180835260408601915060408160051b8701019250602087015f5b82811015611cc957603f19888603018452611cb7858351611bb6565b94509285019290850190600101611c9b565b5092979650505050505050565b602081016108348284611b96565b6001600160a01b038b168152610140602082018190525f90611d088382018d611b3f565b90508281036040840152611d1c818c611b3f565b90508281036060840152611d30818b611b3f565b90508281036080840152611d44818a611b3f565b9150508660a08301528560c0830152611d6060e0830186611b96565b610100820193909352610120015298975050505050505050565b602081525f6119326020830184611b3f565b602081525f6119326020830184611bb6565b602080825282518282018190525f9190848201906040850190845b81811015611dde5783516001600160a01b031683529284019291840191600101611db9565b50909695505050505050565b803560048110611b01575f80fd5b5f8060408385031215611e09575f80fd5b611e1283611aeb565b9150611e2060208401611dea565b90509250929050565b5f8060408385031215611e3a575f80fd5b611e4383611aeb565b946020939093013593505050565b5f60208284031215611e61575f80fd5b61193282611dea565b634e487b7160e01b5f52604160045260245ffd5b5f82601f830112611e8d575f80fd5b813567ffffffffffffffff80821115611ea857611ea8611e6a565b604051601f8301601f19908116603f01168101908282118183101715611ed057611ed0611e6a565b81604052838152866020858801011115611ee8575f80fd5b836020870160208301375f602085830101528094505050505092915050565b5f805f60608486031215611f19575f80fd5b833567ffffffffffffffff80821115611f30575f80fd5b611f3c87838801611e7e565b94506020860135915080821115611f51575f80fd5b611f5d87838801611e7e565b93506040860135915080821115611f72575f80fd5b50611f7f86828701611e7e565b9150509250925092565b5f805f8060808587031215611f9c575f80fd5b843567ffffffffffffffff80821115611fb3575f80fd5b611fbf88838901611e7e565b95506020870135915080821115611fd4575f80fd5b611fe088838901611e7e565b94506040870135915080821115611ff5575f80fd5b61200188838901611e7e565b93506060870135915080821115612016575f80fd5b5061202387828801611e7e565b91505092959194509250565b634e487b7160e01b5f52601160045260245ffd5b808201808211156108345761083461202f565b818103818111156108345761083461202f565b600181811c9082168061207d57607f821691505b60208210810361209b57634e487b7160e01b5f52602260045260245ffd5b50919050565b634e487b7160e01b5f52603260045260245ffd5b5f600182016120c6576120c661202f565b5060010190565b606081016120db8286611b96565b6120e86020830185611b96565b826040830152949350505050565b601f82111561159057805f5260205f20601f840160051c8101602085101561211b5750805b601f840160051c820191505b8181101561213a575f8155600101612127565b5050505050565b815167ffffffffffffffff81111561215b5761215b611e6a565b61216f816121698454612069565b846120f6565b602080601f8311600181146121a2575f841561218b5750858301515b5f19600386901b1c1916600185901b1785556121f9565b5f85815260208120601f198616915b828110156121d0578886015182559484019460019091019084016121b1565b50858210156121ed57878501515f19600388901b60f8161c191681555b505060018460011b0185555b505050505050565b608081525f6122136080830187611b3f565b82810360208401526122258187611b3f565b905082810360408401526122398186611b3f565b91505082606083015295945050505050565b604081525f61225d6040830185611b3f565b9050826020830152939250505056fe9b779b17422d0df92223018b32b4d1fa46e071723d6817e2486d003becc55f00a2646970667358221220f371b946ab0e18150ba7754889b1bcb4b67047494d3a7de9a59c6f90a743e10464736f6c63430008180033",
  "devdoc": {
    "details": "Registry for companies participating in the payroll system Handles company registration, KYC verification, and status management",
    "errors": {
      "OwnableInvalidOwner(address)": [
        {
          "details": "The owner is not a valid owner account. (eg. `address(0)`)"
        }
      ],
      "OwnableUnauthorizedAccount(address)": [
        {
          "details": "The caller account is not authorized to perform an operation."
        }
      ],
      "ReentrancyGuardReentrantCall()": [
        {
          "details": "Unauthorized reentrant call."
        }
      ]
    },
    "kind": "dev",
    "methods": {
      "changeCompanyStatus(address,uint8)": {
        "details": "Change company status (only owner or KYC verifier)",
        "params": {
          "_companyAddress": "Address of the company",
          "_newStatus": "New status"
        }
      },
      "constructor": {
        "details": "Constructor",
        "params": {
          "_initialOwner": "Initial owner of the contract",
          "_kycVerifier": "Initial KYC verifier address"
        }
      },
      "getAllCompanyAddresses()": {
        "details": "Get all registered company addresses"
      },
      "getCompaniesByStatus(uint8)": {
        "details": "Get companies by status",
        "params": {
          "_status": "Status to filter by"
        }
      },
      "getCompany(address)": {
        "details": "Get company details",
        "params": {
          "_companyAddress": "Address of the company"
        }
      },
      "getPaginatedCompanies(uint256,uint256)": {
        "details": "Get paginated list of companies",
        "params": {
          "_limit": "Number of companies to return",
          "_offset": "Starting index"
        }
      },
      "getTotalCompanies()": {
        "details": "Get total number of registered companies"
      },
      "isCompany(address)": {
        "details": "Check if an address is a registered company",
        "params": {
          "_companyAddress": "Address to check"
        }
      },
      "isVerifiedCompany(address)": {
        "details": "Check if a company is verified (active status)",
        "params": {
          "_companyAddress": "Address to check"
        }
      },
      "owner()": {
        "details": "Returns the address of the current owner."
      },
      "registerCompany(string,string,string,string)": {
        "details": "Register a new company",
        "params": {
          "_country": "Country of registration",
          "_industry": "Industry sector",
          "_legalId": "Legal business ID/tax ID",
          "_name": "Company name"
        }
      },
      "renounceOwnership()": {
        "details": "Leaves the contract without owner. It will not be possible to call `onlyOwner` functions. Can only be called by the current owner. NOTE: Renouncing ownership will leave the contract without an owner, thereby disabling any functionality that is only available to the owner."
      },
      "setKYCVerifier(address)": {
        "details": "Set new KYC verifier (only owner)",
        "params": {
          "_newVerifier": "New verifier address"
        }
      },
      "transferOwnership(address)": {
        "details": "Transfers ownership of the contract to a new account (`newOwner`). Can only be called by the current owner."
      },
      "updateCompanyInfo(string,string,string)": {
        "details": "Update company information",
        "params": {
          "_country": "New country",
          "_industry": "New industry",
          "_name": "New company name"
        }
      },
      "updateTotalPaid(address,uint256)": {
        "details": "Update total paid amount for a company (called by PayrollContract)",
        "params": {
          "_amount": "Amount paid",
          "_companyAddress": "Address of the company"
        }
      },
      "updateWorkerCount(address,uint256)": {
        "details": "Update worker count for a company (called by PayrollContract)",
        "params": {
          "_companyAddress": "Address of the company",
          "_newCount": "New worker count"
        }
      },
      "verifyCompany(address)": {
        "details": "Verify a company (KYC approved)",
        "params": {
          "_companyAddress": "Address of the company to verify"
        }
      }
    },
    "title": "CompanyRegistry",
    "version": 1
  },
  "userdoc": {
    "kind": "user",
    "methods": {},
    "version": 1
  },
  "storageLayout": {
    "storage": [
      {
        "astId": 8,
        "contract": "contracts/CompanyRegistry.sol:CompanyRegistry",
        "label": "_owner",
        "offset": 0,
        "slot": "0",
        "type": "t_address"
      },
      {
        "astId": 7403,
        "contract": "contracts/CompanyRegistry.sol:CompanyRegistry",
        "label": "companies",
        "offset": 0,
        "slot": "1",
        "type": "t_mapping(t_address,t_struct(Company)7398_storage)"
      },
      {
        "astId": 7406,
        "contract": "contracts/CompanyRegistry.sol:CompanyRegistry",
        "label": "companyAddresses",
        "offset": 0,
        "slot": "2",
        "type": "t_struct(AddressSet)6332_storage"
      },
      {
        "astId": 7408,
        "contract": "contracts/CompanyRegistry.sol:CompanyRegistry",
        "label": "kycVerifier",
        "offset": 0,
        "slot": "4",
        "type": "t_address"
      }
    ],
    "types": {
      "t_address": {
        "encoding": "inplace",
        "label": "address",
        "numberOfBytes": "20"
      },
      "t_array(t_bytes32)dyn_storage": {
        "base": "t_bytes32",
        "encoding": "dynamic_array",
        "label": "bytes32[]",
        "numberOfBytes": "32"
      },
      "t_bytes32": {
        "encoding": "inplace",
        "label": "bytes32",
        "numberOfBytes": "32"
      },
      "t_enum(CompanyStatus)7376": {
        "encoding": "inplace",
        "label": "enum CompanyRegistry.CompanyStatus",
        "numberOfBytes": "1"
      },
      "t_mapping(t_address,t_struct(Company)7398_storage)": {
        "encoding": "mapping",
        "key": "t_address",
        "label": "mapping(address => struct CompanyRegistry.Company)",
        "numberOfBytes": "32",
        "value": "t_struct(Company)7398_storage"
      },
      "t_mapping(t_bytes32,t_uint256)": {
        "encoding": "mapping",
        "key": "t_bytes32",
        "label": "mapping(bytes32 => uint256)",
        "numberOfBytes": "32",
        "value": "t_uint256"
      },
      "t_string_storage": {
        "encoding": "bytes",
        "label": "string",
        "numberOfBytes": "32"
      },
      "t_struct(AddressSet)6332_storage": {
        "encoding": "inplace",
        "label": "struct EnumerableSet.AddressSet",
        "members": [
          {
            "astId": 6331,
            "contract": "contracts/CompanyRegistry.sol:CompanyRegistry",
            "label": "_inner",
            "offset": 0,
            "slot": "0",
            "type": "t_struct(Set)5664_storage"
          }
        ],
        "numberOfBytes": "64"
      },
      "t_struct(Company)7398_storage": {
        "encoding": "inplace",
        "label": "struct CompanyRegistry.Company",
        "members": [
          {
            "astId": 7378,
            "contract": "contracts/CompanyRegistry.sol:CompanyRegistry",
            "label": "companyAddress",
            "offset": 0,
            "slot": "0",
            "type": "t_address"
          },
          {
            "astId": 7380,
            "contract": "contracts/CompanyRegistry.sol:CompanyRegistry",
            "label": "name",
            "offset": 0,
            "slot": "1",
            "type": "t_string_storage"
          },
          {
            "astId": 7382,
            "contract": "contracts/CompanyRegistry.sol:CompanyRegistry",
            "label": "legalId",
            "offset": 0,
            "slot": "2",
            "type": "t_string_storage"
          },
          {
            "astId": 7384,
            "contract": "contracts/CompanyRegistry.sol:CompanyRegistry",
            "label": "country",
            "offset": 0,
            "slot": "3",
            "type": "t_string_storage"
          },
          {
            "astId": 7386,
            "contract": "contracts/CompanyRegistry.sol:CompanyRegistry",
            "label": "industry",
            "offset": 0,
            "slot": "4",
            "type": "t_string_storage"
          },
          {
            "astId": 7388,
            "contract": "contracts/CompanyRegistry.sol:CompanyRegistry",
            "label": "registeredAt",
            "offset": 0,
            "slot": "5",
            "type": "t_uint256"
          },
          {
            "astId": 7390,
            "contract": "contracts/CompanyRegistry.sol:CompanyRegistry",
            "label": "verifiedAt",
            "offset": 0,
            "slot": "6",
            "type": "t_uint256"
          },
          {
            "astId": 7393,
            "contract": "contracts/CompanyRegistry.sol:CompanyRegistry",
            "label": "status",
            "offset": 0,
            "slot": "7",
            "type": "t_enum(CompanyStatus)7376"
          },
          {
            "astId": 7395,
            "contract": "contracts/CompanyRegistry.sol:CompanyRegistry",
            "label": "totalWorkers",
            "offset": 0,
            "slot": "8",
            "type": "t_uint256"
          },
          {
            "astId": 7397,
            "contract": "contracts/CompanyRegistry.sol:CompanyRegistry",
            "label": "totalPaid",
            "offset": 0,
            "slot": "9",
            "type": "t_uint256"
          }
        ],
        "numberOfBytes": "320"
      },
      "t_struct(Set)5664_storage": {
        "encoding": "inplace",
        "label": "struct EnumerableSet.Set",
        "members": [
          {
            "astId": 5659,
            "contract": "contracts/CompanyRegistry.sol:CompanyRegistry",
            "label": "_values",
            "offset": 0,
            "slot": "0",
            "type": "t_array(t_bytes32)dyn_storage"
          },
          {
            "astId": 5663,
            "contract": "contracts/CompanyRegistry.sol:CompanyRegistry",
            "label": "_positions",
            "offset": 0,
            "slot": "1",
            "type": "t_mapping(t_bytes32,t_uint256)"
          }
        ],
        "numberOfBytes": "64"
      },
      "t_uint256": {
        "encoding": "inplace",
        "label": "uint256",
        "numberOfBytes": "32"
      }
    }
  }
}