{
  "address": "0xB686fE473Ae388D84B6a7A2B14432aB654F9ccA7",
  "abi": [
    {
      "inputs": [
        {
          "internalType": "address",
          "name": "_usdcToken",
          "type": "address"
        },
        {
          "internalType": "address",
          "name": "_companyRegistry",
          "type": "address"
        },
        {
          "internalType": "address",
          "name": "_workerRegistry",
          "type": "address"
        }
      ],
      "stateMutability": "nonpayable",
      "type": "constructor"
    },
    {
      "inputs": [],
      "name": "AmountZero",
      "type": "error"
    },
    {
      "inputs": [],
      "name": "ArraysLengthMismatch",
      "type": "error"
    },
    {
      "inputs": [],
      "name": "CompanyNotVerified",
      "type": "error"
    },
    {
      "inputs": [],
      "name": "EscrowNotOver",
      "type": "error"
    },
    {
      "inputs": [],
      "name": "InvalidAddress",
      "type": "error"
    },
    {
      "inputs": [],
      "name": "NotAuthorized",
      "type": "error"
    },
    {
      "inputs": [
        {
          "internalType": "address",
          "name": "owner",
          "type": "address"
        }
      ],
      "name": "OwnableInvalidOwner",
      "type": "error"
    },
    {
      "inputs": [
        {
          "internalType": "address",
          "name": "account",
          "type": "address"
        }
      ],
      "name": "OwnableUnauthorizedAccount",
      "type": "error"
    },
    {
      "inputs": [],
      "name": "PaymentAlreadyReleased",
      "type": "error"
    },
    {
      "inputs": [],
      "name": "PaymentNotFound",
      "type": "error"
    },
    {
      "inputs": [],
      "name": "ReentrancyGuardReentrantCall",
      "type": "error"
    },
    {
      "inputs": [],
      "name": "RegistryNotSet",
      "type": "error"
    },
    {
      "inputs": [],
      "name": "TransferFailed",
      "type": "error"
    },
    {
      "inputs": [],
      "name": "WorkerNotVerified",
      "type": "error"
    },
    {
      "anonymous": false,
      "inputs": [
        {
          "indexed": false,
          "internalType": "uint256[]",
          "name": "paymentIds",
          "type": "uint256[]"
        },
        {
          "indexed": true,
          "internalType": "address",
          "name": "employer",
          "type": "address"
        },
        {
          "indexed": false,
          "internalType": "uint256",
          "name": "totalAmount",
          "type": "uint256"
        }
      ],
      "name": "BatchPaymentCreated",
      "type": "event"
    },
    {
      "anonymous": false,
      "inputs": [
        {
          "indexed": true,
          "internalType": "address",
          "name": "oldRegistry",
          "type": "address"
        },
        {
          "indexed": true,
          "internalType": "address",
          "name": "newRegistry",
          "type": "address"
        }
      ],
      "name": "CompanyRegistryUpdated",
      "type": "event"
    },
    {
      "anonymous": false,
      "inputs": [
        {
          "indexed": true,
          "internalType": "address",
          "name": "to",
          "type": "address"
        },
        {
          "indexed": false,
          "internalType": "uint256",
          "name": "amount",
          "type": "uint256"
        }
      ],
      "name": "EmergencyWithdraw",
      "type": "event"
    },
    {
      "anonymous": false,
      "inputs": [
        {
          "indexed": false,
          "internalType": "uint256",
          "name": "oldTime",
          "type": "uint256"
        },
        {
          "indexed": false,
          "internalType": "uint256",
          "name": "newTime",
          "type": "uint256"
        }
      ],
      "name": "EscrowTimeUpdated",
      "type": "event"
    },
    {
      "anonymous": false,
      "inputs": [
        {
          "indexed": true,
          "internalType": "address",
          "name": "previousOwner",
          "type": "address"
        },
        {
          "indexed": true,
          "internalType": "address",
          "name": "newOwner",
          "type": "address"
        }
      ],
      "name": "OwnershipTransferred",
      "type": "event"
    },
    {
      "anonymous": false,
      "inputs": [
        {
          "indexed": true,
          "internalType": "uint256",
          "name": "paymentId",
          "type": "uint256"
        },
        {
          "indexed": true,
          "internalType": "address",
          "name": "worker",
          "type": "address"
        },
        {
          "indexed": false,
          "internalType": "uint256",
          "name": "amount",
          "type": "uint256"
        },
        {
          "indexed": false,
          "internalType": "bool",
          "name": "useEscrow",
          "type": "bool"
        }
      ],
      "name": "PaymentCreated",
      "type": "event"
    },
    {
      "anonymous": false,
      "inputs": [
        {
          "indexed": true,
          "internalType": "uint256",
          "name": "paymentId",
          "type": "uint256"
        },
        {
          "indexed": false,
          "internalType": "uint256",
          "name": "releaseTime",
          "type": "uint256"
        }
      ],
      "name": "PaymentEscrowed",
      "type": "event"
    },
    {
      "anonymous": false,
      "inputs": [
        {
          "indexed": true,
          "internalType": "uint256",
          "name": "paymentId",
          "type": "uint256"
        },
        {
          "indexed": true,
          "internalType": "address",
          "name": "worker",
          "type": "address"
        },
        {
          "indexed": false,
          "internalType": "uint256",
          "name": "amount",
          "type": "uint256"
        }
      ],
      "name": "PaymentReleased",
      "type": "event"
    },
    {
      "anonymous": false,
      "inputs": [
        {
          "indexed": true,
          "internalType": "address",
          "name": "oldRegistry",
          "type": "address"
        },
        {
          "indexed": true,
          "internalType": "address",
          "name": "newRegistry",
          "type": "address"
        }
      ],
      "name": "WorkerRegistryUpdated",
      "type": "event"
    },
    {
      "inputs": [
        {
          "internalType": "address[]",
          "name": "_workers",
          "type": "address[]"
        },
        {
          "internalType": "uint256[]",
          "name": "_amounts",
          "type": "uint256[]"
        },
        {
          "internalType": "bool",
          "name": "_useEscrow",
          "type": "bool"
        }
      ],
      "name": "batchCreatePayments",
      "outputs": [
        {
          "internalType": "uint256[]",
          "name": "",
          "type": "uint256[]"
        }
      ],
      "stateMutability": "nonpayable",
      "type": "function"
    },
    {
      "inputs": [],
      "name": "companyRegistry",
      "outputs": [
        {
          "internalType": "address",
          "name": "",
          "type": "address"
        }
      ],
      "stateMutability": "view",
      "type": "function"
    },
    {
      "inputs": [
        {
          "internalType": "address",
          "name": "_worker",
          "type": "address"
        },
        {
          "internalType": "uint256",
          "name": "_amount",
          "type": "uint256"
        },
        {
          "internalType": "bool",
          "name": "_useEscrow",
          "type": "bool"
        },
        {
          "internalType": "uint256",
          "name": "_customEscrowTime",
          "type": "uint256"
        }
      ],
      "name": "createPayment",
      "outputs": [
        {
          "internalType": "uint256",
          "name": "",
          "type": "uint256"
        }
      ],
      "stateMutability": "nonpayable",
      "type": "function"
    },
    {
      "inputs": [],
      "name": "defaultEscrowTime",
      "outputs": [
        {
          "internalType": "uint256",
          "name": "",
          "type": "uint256"
        }
      ],
      "stateMutability": "view",
      "type": "function"
    },
    {
      "inputs": [
        {
          "internalType": "uint256",
          "name": "_amount",
          "type": "uint256"
        },
        {
          "internalType": "address",
          "name": "_to",
          "type": "address"
        }
      ],
      "name": "emergencyWithdraw",
      "outputs": [],
      "stateMutability": "nonpayable",
      "type": "function"
    },
    {
      "inputs": [],
      "name": "getContractBalance",
      "outputs": [
        {
          "internalType": "uint256",
          "name": "",
          "type": "uint256"
        }
      ],
      "stateMutability": "view",
      "type": "function"
    },
    {
      "inputs": [
        {
          "internalType": "address",
          "name": "_employer",
          "type": "address"
        }
      ],
      "name": "getEmployerPayments",
      "outputs": [
        {
          "internalType": "uint256[]",
          "name": "",
          "type": "uint256[]"
        }
      ],
      "stateMutability": "view",
      "type": "function"
    },
    {
      "inputs": [
        {
          "internalType": "uint256",
          "name": "_paymentId",
          "type": "uint256"
        }
      ],
      "name": "getPayment",
      "outputs": [
        {
          "components": [
            {
              "internalType": "uint256",
              "name": "id",
              "type": "uint256"
            },
            {
              "internalType": "address",
              "name": "worker",
              "type": "address"
            },
            {
              "internalType": "uint256",
              "name": "amount",
              "type": "uint256"
            },
            {
              "internalType": "uint256",
              "name": "timestamp",
              "type": "uint256"
            },
            {
              "internalType": "bool",
              "name": "isReleased",
              "type": "bool"
            },
            {
              "internalType": "bool",
              "name": "isEscrowed",
              "type": "bool"
            },
            {
              "internalType": "address",
              "name": "employer",
              "type": "address"
            },
            {
              "internalType": "uint256",
              "name": "escrowReleaseTime",
              "type": "uint256"
            }
          ],
          "internalType": "struct PayrollContract.Payment",
          "name": "",
          "type": "tuple"
        }
      ],
      "stateMutability": "view",
      "type": "function"
    },
    {
      "inputs": [
        {
          "internalType": "address",
          "name": "_worker",
          "type": "address"
        }
      ],
      "name": "getPendingPayments",
      "outputs": [
        {
          "internalType": "uint256[]",
          "name": "",
          "type": "uint256[]"
        }
      ],
      "stateMutability": "view",
      "type": "function"
    },
    {
      "inputs": [
        {
          "internalType": "address",
          "name": "_worker",
          "type": "address"
        }
      ],
      "name": "getWorkerPayments",
      "outputs": [
        {
          "internalType": "uint256[]",
          "name": "",
          "type": "uint256[]"
        }
      ],
      "stateMutability": "view",
      "type": "function"
    },
    {
      "inputs": [],
      "name": "owner",
      "outputs": [
        {
          "internalType": "address",
          "name": "",
          "type": "address"
        }
      ],
      "stateMutability": "view",
      "type": "function"
    },
    {
      "inputs": [],
      "name": "paymentCounter",
      "outputs": [
        {
          "internalType": "uint256",
          "name": "",
          "type": "uint256"
        }
      ],
      "stateMutability": "view",
      "type": "function"
    },
    {
      "inputs": [
        {
          "internalType": "uint256",
          "name": "",
          "type": "uint256"
        }
      ],
      "name": "payments",
      "outputs": [
        {
          "internalType": "uint256",
          "name": "id",
          "type": "uint256"
        },
        {
          "internalType": "address",
          "name": "worker",
          "type": "address"
        },
        {
          "internalType": "uint256",
          "name": "amount",
          "type": "uint256"
        },
        {
          "internalType": "uint256",
          "name": "timestamp",
          "type": "uint256"
        },
        {
          "internalType": "bool",
          "name": "isReleased",
          "type": "bool"
        },
        {
          "internalType": "bool",
          "name": "isEscrowed",
          "type": "bool"
        },
        {
          "internalType": "address",
          "name": "employer",
          "type": "address"
        },
        {
          "internalType": "uint256",
          "name": "escrowReleaseTime",
          "type": "uint256"
        }
      ],
      "stateMutability": "view",
      "type": "function"
    },
    {
      "inputs": [
        {
          "internalType": "uint256",
          "name": "_paymentId",
          "type": "uint256"
        }
      ],
      "name": "releasePayment",
      "outputs": [],
      "stateMutability": "nonpayable",
      "type": "function"
    },
    {
      "inputs": [],
      "name": "renounceOwnership",
      "outputs": [],
      "stateMutability": "nonpayable",
      "type": "function"
    },
    {
      "inputs": [
        {
          "internalType": "address",
          "name": "_companyRegistry",
          "type": "address"
        }
      ],
      "name": "setCompanyRegistry",
      "outputs": [],
      "stateMutability": "nonpayable",
      "type": "function"
    },
    {
      "inputs": [
        {
          "internalType": "uint256",
          "name": "_escrowTime",
          "type": "uint256"
        }
      ],
      "name": "setEscrowTime",
      "outputs": [],
      "stateMutability": "nonpayable",
      "type": "function"
    },
    {
      "inputs": [
        {
          "internalType": "address",
          "name": "_workerRegistry",
          "type": "address"
        }
      ],
      "name": "setWorkerRegistry",
      "outputs": [],
      "stateMutability": "nonpayable",
      "type": "function"
    },
    {
      "inputs": [
        {
          "internalType": "address",
          "name": "newOwner",
          "type": "address"
        }
      ],
      "name": "transferOwnership",
      "outputs": [],
      "stateMutability": "nonpayable",
      "type": "function"
    },
    {
      "inputs": [],
      "name": "usdcToken",
      "outputs": [
        {
          "internalType": "contract IERC20",
          "name": "",
          "type": "address"
        }
      ],
      "stateMutability": "view",
      "type": "function"
    },
    {
      "inputs": [],
      "name": "workerRegistry",
      "outputs": [
        {
          "internalType": "address",
          "name": "",
          "type": "address"
        }
      ],
      "stateMutability": "view",
      "type": "function"
    }
  ],
  "transactionHash": "0x64c52a2fb46c58de8e4b4df8e38d109adba10de7c63ab58fdd99e896212ff905",
  "args": [
    "0x3600000000000000000000000000000000000000",
    "0x1CfE5f3c534E3b7F8A58195E59eBcF17345dfFa1",
    "0x9382c74117482f5674aF2e4DD87515B1BD85dB1D"
  ],
  "numDeployments": 2,
  "solcInputHash": "6b890c11071124f528b116c81f998a0f",
  "bytecode": "0x608060405262093a8060065534801562000017575f80fd5b5060405162002077380380620020778339810160408190526200003a9162000166565b33806200006057604051631e4fbdf760e01b81525f600482015260240160405180910390fd5b6200006b81620000fb565b5060017f9b779b17422d0df92223018b32b4d1fa46e071723d6817e2486d003becc55f00556001600160a01b038316620000b85760405163e6c4247b60e01b815260040160405180910390fd5b600180546001600160a01b039485166001600160a01b031991821617909155600280549385169382169390931790925560038054919093169116179055620001ad565b5f80546001600160a01b038381166001600160a01b0319831681178455604051919092169283917f8be0079c531659141344cd1fd0a4f28419497f9722a3daafe3b4186f6b6457e09190a35050565b80516001600160a01b038116811462000161575f80fd5b919050565b5f805f6060848603121562000179575f80fd5b62000184846200014a565b925062000194602085016200014a565b9150620001a4604085016200014a565b90509250925092565b611ebc80620001bb5f395ff3fe608060405234801561000f575f80fd5b5060043610610132575f3560e01c80636f9fb98a116100b45780638da5cb5b116100795780638da5cb5b14610374578063b63de51f14610384578063c51aba2b14610397578063e9c6f5d1146103aa578063ec446c07146103bd578063f2fde38b146103d0575f80fd5b80636f9fb98a14610296578063715018a61461029e57806376840b60146102a657806387d81789146102af57806388685cd914610361575f80fd5b806334f119bb116100fa57806334f119bb1461023457806340a2e60a146102545780636120303a1461026757806362a662d51461027a5780636b4a5b241461028d575f80fd5b806311eac8551461013657806324a0c97714610166578063276fa695146101875780632f940c701461019c5780633280a836146101af575b5f80fd5b600154610149906001600160a01b031681565b6040516001600160a01b0390911681526020015b60405180910390f35b610179610174366004611bc4565b6103e3565b60405190815260200161015d565b61019a610195366004611c07565b6108ca565b005b61019a6101aa366004611c27565b61094a565b6101c26101bd366004611c51565b610a55565b60405161015d91905f6101008201905082518252602083015160018060a01b038082166020850152604085015160408501526060850151606085015260808501511515608085015260a0850151151560a08501528060c08601511660c0850152505060e083015160e083015292915050565b610247610242366004611cb0565b610b47565b60405161015d9190611d68565b610247610262366004611c07565b6111d4565b61019a610275366004611c07565b611323565b61019a610288366004611c51565b6113a3565b61017960065481565b6101796113f0565b61019a61145f565b61017960055481565b6103176102bd366004611c51565b600460208190525f918252604090912080546001820154600283015460038401549484015460059094015492946001600160a01b03928316949193909260ff80841693610100810490911692620100009091049091169088565b604080519889526001600160a01b0397881660208a015288019590955260608701939093529015156080860152151560a085015290911660c083015260e08201526101000161015d565b61019a61036f366004611c51565b611472565b5f546001600160a01b0316610149565b610247610392366004611c07565b61187c565b600254610149906001600160a01b031681565b6102476103b8366004611c07565b611983565b600354610149906001600160a01b031681565b61019a6103de366004611c07565b611a98565b6002545f906001600160a01b0316156104d9576002546040513360248201525f9182916001600160a01b039091169060440160408051601f198184030181529181526020820180516001600160e01b031663236da3b560e11b1790525161044a9190611d7a565b5f60405180830381855afa9150503d805f8114610482576040519150601f19603f3d011682016040523d82523d5f602084013e610487565b606091505b509150915081801561049957505f8151115b156104d9575f818060200190518101906104b39190611da6565b9050806104d35760405163ea8e4eb560e01b815260040160405180910390fd5b506104f2565b60405163ea8e4eb560e01b815260040160405180910390fd5b50506104fc611ad7565b835f0361051c576040516365e52d5160e11b815260040160405180910390fd5b6003546001600160a01b031661054557604051630e048e7160e41b815260040160405180910390fd5b6003546040516001600160a01b0387811660248301525f92839291169060440160408051601f198184030181529181526020820180516001600160e01b0316630b9d5cf760e21b1790525161059a9190611d7a565b5f60405180830381855afa9150503d805f81146105d2576040519150601f19603f3d011682016040523d82523d5f602084013e6105d7565b606091505b50915091508115806105e857508051155b806106045750808060200190518101906106029190611da6565b155b1561062257604051632ef280e360e01b815260040160405180910390fd5b6001546040516323b872dd60e01b8152336004820152306024820152604481018890525f916001600160a01b0316906323b872dd906064016020604051808303815f875af1158015610676573d5f803e3d5ffd5b505050506040513d601f19601f8201168201806040525081019061069a9190611da6565b9050806106ba576040516312171d8360e31b815260040160405180910390fd5b60058054905f6106c983611dd5565b91905055505f866106da575f6106f5565b5f86116106f3576006546106ee9042611ded565b6106f5565b855b905060405180610100016040528060055481526020018a6001600160a01b031681526020018981526020014281526020015f151581526020018815158152602001336001600160a01b031681526020018281525060045f60055481526020019081526020015f205f820151815f01556020820151816001015f6101000a8154816001600160a01b0302191690836001600160a01b0316021790555060408201518160020155606082015181600301556080820151816004015f6101000a81548160ff02191690831515021790555060a08201518160040160016101000a81548160ff02191690831515021790555060c08201518160040160026101000a8154816001600160a01b0302191690836001600160a01b0316021790555060e08201518160050155905050861561085a576005546040518281527f0fbcac148363a35bd0ca56d1f3f4257e0a2dddc572216514dd85b68a0b969f3b9060200160405180910390a25b600554604080518a815289151560208201526001600160a01b038c1692917f3a1f945364c8f28e54ace08f412a05e0c070f1bc3c4f60cd8a3216a1d33288c2910160405180910390a36005549450505050506108c260015f80516020611e6783398151915255565b949350505050565b6108d2611af2565b6001600160a01b0381166108f95760405163e6c4247b60e01b815260040160405180910390fd5b600380546001600160a01b038381166001600160a01b0319831681179093556040519116919082907f401ca035d6d2cd91a955e9e4b05380ae7cd924f90ab794fc1ab81ae21623e5d7905f90a35050565b610952611af2565b6001600160a01b0381166109795760405163e6c4247b60e01b815260040160405180910390fd5b60015460405163a9059cbb60e01b81526001600160a01b038381166004830152602482018590525f92169063a9059cbb906044016020604051808303815f875af11580156109c9573d5f803e3d5ffd5b505050506040513d601f19601f820116820180604052508101906109ed9190611da6565b905080610a0d576040516312171d8360e31b815260040160405180910390fd5b816001600160a01b03167f5fafa99d0643513820be26656b45130b01e1c03062e1266bf36f88cbd3bd969584604051610a4891815260200190565b60405180910390a2505050565b60408051610100810182525f80825260208201819052918101829052606081018290526080810182905260a0810182905260c0810182905260e08101919091525f828152600460205260408120549003610ac25760405163befcc57b60e01b815260040160405180910390fd5b505f90815260046020818152604092839020835161010080820186528254825260018301546001600160a01b0390811694830194909452600283015495820195909552600382015460608201529281015460ff80821615156080860152948104909416151560a0840152620100009093041660c082015260059091015460e082015290565b6002546060906001600160a01b0316156104d9576002546040513360248201525f9182916001600160a01b039091169060440160408051601f198184030181529181526020820180516001600160e01b031663236da3b560e11b17905251610baf9190611d7a565b5f60405180830381855afa9150503d805f8114610be7576040519150601f19603f3d011682016040523d82523d5f602084013e610bec565b606091505b5091509150818015610bfe57505f8151115b156104d9575f81806020019051810190610c189190611da6565b905080610c385760405163ea8e4eb560e01b815260040160405180910390fd5b505050610c43611ad7565b848314610c63576040516307e11acb60e51b815260040160405180910390fd5b5f859003610c84576040516365e52d5160e11b815260040160405180910390fd5b6003546001600160a01b0316610cad57604051630e048e7160e41b815260040160405180910390fd5b5f805b84811015610d1e57858582818110610cca57610cca611e06565b905060200201355f03610cf0576040516365e52d5160e11b815260040160405180910390fd5b858582818110610d0257610d02611e06565b9050602002013582610d149190611ded565b9150600101610cb0565b506001546040516323b872dd60e01b8152336004820152306024820152604481018390525f916001600160a01b0316906323b872dd906064016020604051808303815f875af1158015610d73573d5f803e3d5ffd5b505050506040513d601f19601f82011682018060405250810190610d979190611da6565b905080610db7576040516312171d8360e31b815260040160405180910390fd5b5f8767ffffffffffffffff811115610dd157610dd1611e1a565b604051908082528060200260200182016040528015610dfa578160200160208202803683370190505b5090505f85610e09575f610e16565b600654610e169042611ded565b90505f5b8981101561116c576003545f9081906001600160a01b03168d8d85818110610e4457610e44611e06565b9050602002016020810190610e599190611c07565b6040516001600160a01b03909116602482015260440160408051601f198184030181529181526020820180516001600160e01b031663aa15664560e01b17905251610ea49190611d7a565b5f60405180830381855afa9150503d805f8114610edc576040519150601f19603f3d011682016040523d82523d5f602084013e610ee1565b606091505b5091509150811580610ef257508051155b80610f0e575080806020019051810190610f0c9190611da6565b155b15610f2c57604051632ef280e360e01b815260040160405180910390fd5b60058054905f610f3b83611dd5565b919050555060405180610100016040528060055481526020018e8e86818110610f6657610f66611e06565b9050602002016020810190610f7b9190611c07565b6001600160a01b031681526020018c8c86818110610f9b57610f9b611e06565b6020908102929092013583525042828201525f60408084018290528d15156060808601919091523360808087019190915260a09586018b905260058054855260048087529484902088518155958801516001870180546001600160a01b0319166001600160a01b0392831617905593880151600287015591870151600386015586015192840180549587015160c088015161ffff1990971694151561ff00191694909417610100941515949094029390931762010000600160b01b03191662010000959092169490940217905560e0909201519181019190915554855186908590811061108a5761108a611e06565b6020026020010181815250508c8c848181106110a8576110a8611e06565b90506020020160208101906110bd9190611c07565b6001600160a01b03166005547f3a1f945364c8f28e54ace08f412a05e0c070f1bc3c4f60cd8a3216a1d33288c28d8d878181106110fc576110fc611e06565b905060200201358c60405161111d9291909182521515602082015260400190565b60405180910390a38815611162576005546040518581527f0fbcac148363a35bd0ca56d1f3f4257e0a2dddc572216514dd85b68a0b969f3b9060200160405180910390a25b5050600101610e1a565b50336001600160a01b03167f650a757d8074712b1abab163adf61ccdd98503a57b1cde42d97c4fa18abd02ed83866040516111a8929190611e2e565b60405180910390a250925050506111cb60015f80516020611e6783398151915255565b95945050505050565b60605f60015b6005548111611245575f818152600460205260409020600101546001600160a01b03858116911614801561122057505f818152600460208190526040909120015460ff16155b15611233578161122f81611dd5565b9250505b8061123d81611dd5565b9150506111da565b505f8167ffffffffffffffff81111561126057611260611e1a565b604051908082528060200260200182016040528015611289578160200160208202803683370190505b5090505f60015b6005548111611319575f818152600460205260409020600101546001600160a01b0387811691161480156112d657505f818152600460208190526040909120015460ff16155b1561130757808383815181106112ee576112ee611e06565b60209081029190910101528161130381611dd5565b9250505b8061131181611dd5565b915050611290565b5090949350505050565b61132b611af2565b6001600160a01b0381166113525760405163e6c4247b60e01b815260040160405180910390fd5b600280546001600160a01b038381166001600160a01b0319831681179093556040519116919082907fd8281d5eecfe34311cb50067d16a642f54a37b62d76b155141576889ffdd169c905f90a35050565b6113ab611af2565b600680549082905560408051828152602081018490527fe7fd14618d43992f6bf5bcd0c496697c055bd36b44bcb11f90e887c96f399f9e910160405180910390a15050565b6001546040516370a0823160e01b81523060048201525f916001600160a01b0316906370a0823190602401602060405180830381865afa158015611436573d5f803e3d5ffd5b505050506040513d601f19601f8201168201806040525081019061145a9190611e4f565b905090565b611467611af2565b6114705f611b1e565b565b61147a611ad7565b5f81815260046020526040812080549091036114a95760405163befcc57b60e01b815260040160405180910390fd5b600481015460ff16156114cf5760405163017cbd4560e61b815260040160405180910390fd5b6004810154610100900460ff16156115ea5760035460018201546040516001600160a01b0391821660248201525f928392169060440160408051601f198184030181529181526020820180516001600160e01b0316630b9d5cf760e21b1790525161153a9190611d7a565b5f60405180830381855afa9150503d805f8114611572576040519150601f19603f3d011682016040523d82523d5f602084013e611577565b606091505b509150915081158061158857508051155b806115a45750808060200190518101906115a29190611da6565b155b156115c257604051632ef280e360e01b815260040160405180910390fd5b82600501544210156115e7576040516343ef75dd60e01b815260040160405180910390fd5b50505b60048101805460ff191660011790556003546001600160a01b0316156116b457600354600182015460028301546040516001600160a01b03928316602482015260448101919091525f92919091169060640160408051601f198184030181529181526020820180516001600160e01b03166303a5d2cf60e31b179052516116719190611d7a565b5f604051808303815f865af19150503d805f81146116aa576040519150601f19603f3d011682016040523d82523d5f602084013e6116af565b606091505b505050505b6002546001600160a01b0316156117745760028054600483015491830154604051620100009093046001600160a01b03908116602485015260448401919091525f9291169060640160408051601f198184030181529181526020820180516001600160e01b03166396332fb360e01b179052516117319190611d7a565b5f604051808303815f865af19150503d805f811461176a576040519150601f19603f3d011682016040523d82523d5f602084013e61176f565b606091505b505050505b6001805490820154600283015460405163a9059cbb60e01b81526001600160a01b03928316600482015260248101919091525f92919091169063a9059cbb906044016020604051808303815f875af11580156117d2573d5f803e3d5ffd5b505050506040513d601f19601f820116820180604052508101906117f69190611da6565b905080611816576040516312171d8360e31b815260040160405180910390fd5b600182015460028301546040519081526001600160a01b039091169084907f21d71db5be59bb9fa133895586b7404307dd33fb93b16db09dc6f1d9d7d231b09060200160405180910390a3505061187960015f80516020611e6783398151915255565b50565b60605f60015b60055481116118ce575f818152600460205260409020600101546001600160a01b038086169116036118bc57816118b881611dd5565b9250505b806118c681611dd5565b915050611882565b505f8167ffffffffffffffff8111156118e9576118e9611e1a565b604051908082528060200260200182016040528015611912578160200160208202803683370190505b5090505f60015b6005548111611319575f818152600460205260409020600101546001600160a01b03808816911603611971578083838151811061195857611958611e06565b60209081029190910101528161196d81611dd5565b9250505b8061197b81611dd5565b915050611919565b60605f60015b60055481116119dc575f81815260046020819052604090912001546001600160a01b038086166201000090920416036119ca57816119c681611dd5565b9250505b806119d481611dd5565b915050611989565b505f8167ffffffffffffffff8111156119f7576119f7611e1a565b604051908082528060200260200182016040528015611a20578160200160208202803683370190505b5090505f60015b6005548111611319575f81815260046020819052604090912001546001600160a01b03808816620100009092041603611a865780838381518110611a6d57611a6d611e06565b602090810291909101015281611a8281611dd5565b9250505b80611a9081611dd5565b915050611a27565b611aa0611af2565b6001600160a01b038116611ace57604051631e4fbdf760e01b81525f60048201526024015b60405180910390fd5b61187981611b1e565b611adf611b6d565b60025f80516020611e6783398151915255565b5f546001600160a01b031633146114705760405163118cdaa760e01b8152336004820152602401611ac5565b5f80546001600160a01b038381166001600160a01b0319831681178455604051919092169283917f8be0079c531659141344cd1fd0a4f28419497f9722a3daafe3b4186f6b6457e09190a35050565b5f80516020611e678339815191525460020361147057604051633ee5aeb560e01b815260040160405180910390fd5b80356001600160a01b0381168114611bb2575f80fd5b919050565b8015158114611879575f80fd5b5f805f8060808587031215611bd7575f80fd5b611be085611b9c565b9350602085013592506040850135611bf781611bb7565b9396929550929360600135925050565b5f60208284031215611c17575f80fd5b611c2082611b9c565b9392505050565b5f8060408385031215611c38575f80fd5b82359150611c4860208401611b9c565b90509250929050565b5f60208284031215611c61575f80fd5b5035919050565b5f8083601f840112611c78575f80fd5b50813567ffffffffffffffff811115611c8f575f80fd5b6020830191508360208260051b8501011115611ca9575f80fd5b9250929050565b5f805f805f60608688031215611cc4575f80fd5b853567ffffffffffffffff80821115611cdb575f80fd5b611ce789838a01611c68565b90975095506020880135915080821115611cff575f80fd5b50611d0c88828901611c68565b9094509250506040860135611d2081611bb7565b809150509295509295909350565b5f815180845260208085019450602084015f5b83811015611d5d57815187529582019590820190600101611d41565b509495945050505050565b602081525f611c206020830184611d2e565b5f82515f5b81811015611d995760208186018101518583015201611d7f565b505f920191825250919050565b5f60208284031215611db6575f80fd5b8151611c2081611bb7565b634e487b7160e01b5f52601160045260245ffd5b5f60018201611de657611de6611dc1565b5060010190565b80820180821115611e0057611e00611dc1565b92915050565b634e487b7160e01b5f52603260045260245ffd5b634e487b7160e01b5f52604160045260245ffd5b604081525f611e406040830185611d2e565b90508260208301529392505050565b5f60208284031215611e5f575f80fd5b505191905056fe9b779b17422d0df92223018b32b4d1fa46e071723d6817e2486d003becc55f00a26469706673582212208d9b2317e02e2aa2908887821c3c97651685d60192ef63903124680013b2dc0c64736f6c63430008180033",
  "devdoc": {
    "details": "Handles payroll payments with escrow and batch payment functionality Integrates with CompanyRegistry and WorkerRegistry for verification",
    "errors": {
      "OwnableInvalidOwner(address)": [
        {
          "details": "The owner is not a valid owner account. (eg. `address(0)`)"
        }
      ],
      "OwnableUnauthorizedAccount(address)": [
        {
          "details": "The caller account is not authorized to perform an operation."
        }
      ],
      "ReentrancyGuardReentrantCall()": [
        {
          "details": "Unauthorized reentrant call."
        }
      ]
    },
    "kind": "dev",
    "methods": {
      "batchCreatePayments(address[],uint256[],bool)": {
        "details": "Create batch payments",
        "params": {
          "_amounts": "Array of amounts (must match workers array length)",
          "_useEscrow": "Whether to use escrow for all payments",
          "_workers": "Array of worker addresses"
        }
      },
      "constructor": {
        "details": "Constructor",
        "params": {
          "_companyRegistry": "Company registry contract address",
          "_usdcToken": "USDC token address",
          "_workerRegistry": "Worker registry contract address"
        }
      },
      "createPayment(address,uint256,bool,uint256)": {
        "details": "Create a single payment",
        "params": {
          "_amount": "Amount in USDC (6 decimals)",
          "_customEscrowTime": "Custom escrow time (0 = use default)",
          "_useEscrow": "Whether to use escrow",
          "_worker": "Worker address"
        }
      },
      "emergencyWithdraw(uint256,address)": {
        "details": "Emergency withdraw funds (only owner)",
        "params": {
          "_amount": "Amount to withdraw",
          "_to": "Address to send funds to"
        }
      },
      "getContractBalance()": {
        "details": "Get total contract balance"
      },
      "getEmployerPayments(address)": {
        "details": "Get all payments for an employer",
        "params": {
          "_employer": "Employer address"
        }
      },
      "getPayment(uint256)": {
        "details": "Get payment details",
        "params": {
          "_paymentId": "Payment ID"
        }
      },
      "getPendingPayments(address)": {
        "details": "Get pending payments for a worker",
        "params": {
          "_worker": "Worker address"
        }
      },
      "getWorkerPayments(address)": {
        "details": "Get all payments for a worker",
        "params": {
          "_worker": "Worker address"
        }
      },
      "owner()": {
        "details": "Returns the address of the current owner."
      },
      "releasePayment(uint256)": {
        "details": "Release payment to worker",
        "params": {
          "_paymentId": "Payment ID to release"
        }
      },
      "renounceOwnership()": {
        "details": "Leaves the contract without owner. It will not be possible to call `onlyOwner` functions. Can only be called by the current owner. NOTE: Renouncing ownership will leave the contract without an owner, thereby disabling any functionality that is only available to the owner."
      },
      "setCompanyRegistry(address)": {
        "details": "Set company registry address (only owner)",
        "params": {
          "_companyRegistry": "New company registry address"
        }
      },
      "setEscrowTime(uint256)": {
        "details": "Set default escrow time (only owner)",
        "params": {
          "_escrowTime": "New escrow time in seconds"
        }
      },
      "setWorkerRegistry(address)": {
        "details": "Set worker registry address (only owner)",
        "params": {
          "_workerRegistry": "New worker registry address"
        }
      },
      "transferOwnership(address)": {
        "details": "Transfers ownership of the contract to a new account (`newOwner`). Can only be called by the current owner."
      }
    },
    "title": "PayrollContract",
    "version": 1
  },
  "userdoc": {
    "kind": "user",
    "methods": {},
    "version": 1
  },
  "storageLayout": {
    "storage": [
      {
        "astId": 8,
        "contract": "contracts/PayrollContract.sol:PayrollContract",
        "label": "_owner",
        "offset": 0,
        "slot": "0",
        "type": "t_address"
      },
      {
        "astId": 505,
        "contract": "contracts/PayrollContract.sol:PayrollContract",
        "label": "usdcToken",
        "offset": 0,
        "slot": "1",
        "type": "t_contract(IERC20)225"
      },
      {
        "astId": 507,
        "contract": "contracts/PayrollContract.sol:PayrollContract",
        "label": "companyRegistry",
        "offset": 0,
        "slot": "2",
        "type": "t_address"
      },
      {
        "astId": 509,
        "contract": "contracts/PayrollContract.sol:PayrollContract",
        "label": "workerRegistry",
        "offset": 0,
        "slot": "3",
        "type": "t_address"
      },
      {
        "astId": 531,
        "contract": "contracts/PayrollContract.sol:PayrollContract",
        "label": "payments",
        "offset": 0,
        "slot": "4",
        "type": "t_mapping(t_uint256,t_struct(Payment)526_storage)"
      },
      {
        "astId": 533,
        "contract": "contracts/PayrollContract.sol:PayrollContract",
        "label": "paymentCounter",
        "offset": 0,
        "slot": "5",
        "type": "t_uint256"
      },
      {
        "astId": 536,
        "contract": "contracts/PayrollContract.sol:PayrollContract",
        "label": "defaultEscrowTime",
        "offset": 0,
        "slot": "6",
        "type": "t_uint256"
      }
    ],
    "types": {
      "t_address": {
        "encoding": "inplace",
        "label": "address",
        "numberOfBytes": "20"
      },
      "t_bool": {
        "encoding": "inplace",
        "label": "bool",
        "numberOfBytes": "1"
      },
      "t_contract(IERC20)225": {
        "encoding": "inplace",
        "label": "contract IERC20",
        "numberOfBytes": "20"
      },
      "t_mapping(t_uint256,t_struct(Payment)526_storage)": {
        "encoding": "mapping",
        "key": "t_uint256",
        "label": "mapping(uint256 => struct PayrollContract.Payment)",
        "numberOfBytes": "32",
        "value": "t_struct(Payment)526_storage"
      },
      "t_struct(Payment)526_storage": {
        "encoding": "inplace",
        "label": "struct PayrollContract.Payment",
        "members": [
          {
            "astId": 511,
            "contract": "contracts/PayrollContract.sol:PayrollContract",
            "label": "id",
            "offset": 0,
            "slot": "0",
            "type": "t_uint256"
          },
          {
            "astId": 513,
            "contract": "contracts/PayrollContract.sol:PayrollContract",
            "label": "worker",
            "offset": 0,
            "slot": "1",
            "type": "t_address"
          },
          {
            "astId": 515,
            "contract": "contracts/PayrollContract.sol:PayrollContract",
            "label": "amount",
            "offset": 0,
            "slot": "2",
            "type": "t_uint256"
          },
          {
            "astId": 517,
            "contract": "contracts/PayrollContract.sol:PayrollContract",
            "label": "timestamp",
            "offset": 0,
            "slot": "3",
            "type": "t_uint256"
          },
          {
            "astId": 519,
            "contract": "contracts/PayrollContract.sol:PayrollContract",
            "label": "isReleased",
            "offset": 0,
            "slot": "4",
            "type": "t_bool"
          },
          {
            "astId": 521,
            "contract": "contracts/PayrollContract.sol:PayrollContract",
            "label": "isEscrowed",
            "offset": 1,
            "slot": "4",
            "type": "t_bool"
          },
          {
            "astId": 523,
            "contract": "contracts/PayrollContract.sol:PayrollContract",
            "label": "employer",
            "offset": 2,
            "slot": "4",
            "type": "t_address"
          },
          {
            "astId": 525,
            "contract": "contracts/PayrollContract.sol:PayrollContract",
            "label": "escrowReleaseTime",
            "offset": 0,
            "slot": "5",
            "type": "t_uint256"
          }
        ],
        "numberOfBytes": "192"
      },
      "t_uint256": {
        "encoding": "inplace",
        "label": "uint256",
        "numberOfBytes": "32"
      }
    }
  }
}