{
  "address": "0x9382c74117482f5674aF2e4DD87515B1BD85dB1D",
  "abi": [
    {
      "inputs": [
        {
          "internalType": "address",
          "name": "_initialOwner",
          "type": "address"
        },
        {
          "internalType": "address",
          "name": "_kycVerifier",
          "type": "address"
        },
        {
          "internalType": "address",
          "name": "_companyRegistry",
          "type": "address"
        }
      ],
      "stateMutability": "nonpayable",
      "type": "constructor"
    },
    {
      "inputs": [],
      "name": "EmptyString",
      "type": "error"
    },
    {
      "inputs": [],
      "name": "InvalidAddress",
      "type": "error"
    },
    {
      "inputs": [],
      "name": "InvalidStatus",
      "type": "error"
    },
    {
      "inputs": [],
      "name": "NotAuthorized",
      "type": "error"
    },
    {
      "inputs": [],
      "name": "NotKYCVerifier",
      "type": "error"
    },
    {
      "inputs": [],
      "name": "NotVerifiedCompany",
      "type": "error"
    },
    {
      "inputs": [
        {
          "internalType": "address",
          "name": "owner",
          "type": "address"
        }
      ],
      "name": "OwnableInvalidOwner",
      "type": "error"
    },
    {
      "inputs": [
        {
          "internalType": "address",
          "name": "account",
          "type": "address"
        }
      ],
      "name": "OwnableUnauthorizedAccount",
      "type": "error"
    },
    {
      "inputs": [],
      "name": "ReentrancyGuardReentrantCall",
      "type": "error"
    },
    {
      "inputs": [],
      "name": "WorkerAlreadyRegistered",
      "type": "error"
    },
    {
      "inputs": [],
      "name": "WorkerNotFound",
      "type": "error"
    },
    {
      "anonymous": false,
      "inputs": [
        {
          "indexed": true,
          "internalType": "address",
          "name": "oldRegistry",
          "type": "address"
        },
        {
          "indexed": true,
          "internalType": "address",
          "name": "newRegistry",
          "type": "address"
        },
        {
          "indexed": false,
          "internalType": "uint256",
          "name": "timestamp",
          "type": "uint256"
        }
      ],
      "name": "CompanyRegistryChanged",
      "type": "event"
    },
    {
      "anonymous": false,
      "inputs": [
        {
          "indexed": true,
          "internalType": "address",
          "name": "workerAddress",
          "type": "address"
        },
        {
          "indexed": true,
          "internalType": "address",
          "name": "employer",
          "type": "address"
        },
        {
          "indexed": false,
          "internalType": "uint256",
          "name": "salary",
          "type": "uint256"
        },
        {
          "indexed": false,
          "internalType": "uint256",
          "name": "timestamp",
          "type": "uint256"
        }
      ],
      "name": "EmployerAssigned",
      "type": "event"
    },
    {
      "anonymous": false,
      "inputs": [
        {
          "indexed": true,
          "internalType": "address",
          "name": "oldVerifier",
          "type": "address"
        },
        {
          "indexed": true,
          "internalType": "address",
          "name": "newVerifier",
          "type": "address"
        },
        {
          "indexed": false,
          "internalType": "uint256",
          "name": "timestamp",
          "type": "uint256"
        }
      ],
      "name": "KYCVerifierChanged",
      "type": "event"
    },
    {
      "anonymous": false,
      "inputs": [
        {
          "indexed": true,
          "internalType": "address",
          "name": "previousOwner",
          "type": "address"
        },
        {
          "indexed": true,
          "internalType": "address",
          "name": "newOwner",
          "type": "address"
        }
      ],
      "name": "OwnershipTransferred",
      "type": "event"
    },
    {
      "anonymous": false,
      "inputs": [
        {
          "indexed": true,
          "internalType": "address",
          "name": "workerAddress",
          "type": "address"
        },
        {
          "indexed": false,
          "internalType": "uint256",
          "name": "oldSalary",
          "type": "uint256"
        },
        {
          "indexed": false,
          "internalType": "uint256",
          "name": "newSalary",
          "type": "uint256"
        },
        {
          "indexed": false,
          "internalType": "uint256",
          "name": "timestamp",
          "type": "uint256"
        }
      ],
      "name": "SalaryUpdated",
      "type": "event"
    },
    {
      "anonymous": false,
      "inputs": [
        {
          "indexed": true,
          "internalType": "address",
          "name": "workerAddress",
          "type": "address"
        },
        {
          "indexed": false,
          "internalType": "uint256",
          "name": "amount",
          "type": "uint256"
        },
        {
          "indexed": false,
          "internalType": "uint256",
          "name": "timestamp",
          "type": "uint256"
        }
      ],
      "name": "TotalEarnedUpdated",
      "type": "event"
    },
    {
      "anonymous": false,
      "inputs": [
        {
          "indexed": true,
          "internalType": "address",
          "name": "workerAddress",
          "type": "address"
        },
        {
          "indexed": false,
          "internalType": "string",
          "name": "name",
          "type": "string"
        },
        {
          "indexed": false,
          "internalType": "uint256",
          "name": "timestamp",
          "type": "uint256"
        }
      ],
      "name": "WorkerRegistered",
      "type": "event"
    },
    {
      "anonymous": false,
      "inputs": [
        {
          "indexed": true,
          "internalType": "address",
          "name": "workerAddress",
          "type": "address"
        },
        {
          "indexed": false,
          "internalType": "enum WorkerRegistry.WorkerStatus",
          "name": "oldStatus",
          "type": "uint8"
        },
        {
          "indexed": false,
          "internalType": "enum WorkerRegistry.WorkerStatus",
          "name": "newStatus",
          "type": "uint8"
        },
        {
          "indexed": false,
          "internalType": "uint256",
          "name": "timestamp",
          "type": "uint256"
        }
      ],
      "name": "WorkerStatusChanged",
      "type": "event"
    },
    {
      "anonymous": false,
      "inputs": [
        {
          "indexed": true,
          "internalType": "address",
          "name": "workerAddress",
          "type": "address"
        },
        {
          "indexed": false,
          "internalType": "string",
          "name": "name",
          "type": "string"
        },
        {
          "indexed": false,
          "internalType": "string",
          "name": "email",
          "type": "string"
        },
        {
          "indexed": false,
          "internalType": "string",
          "name": "country",
          "type": "string"
        },
        {
          "indexed": false,
          "internalType": "string",
          "name": "currency",
          "type": "string"
        },
        {
          "indexed": false,
          "internalType": "uint256",
          "name": "timestamp",
          "type": "uint256"
        }
      ],
      "name": "WorkerUpdated",
      "type": "event"
    },
    {
      "anonymous": false,
      "inputs": [
        {
          "indexed": true,
          "internalType": "address",
          "name": "workerAddress",
          "type": "address"
        },
        {
          "indexed": false,
          "internalType": "uint256",
          "name": "timestamp",
          "type": "uint256"
        }
      ],
      "name": "WorkerVerified",
      "type": "event"
    },
    {
      "inputs": [
        {
          "internalType": "address",
          "name": "_workerAddress",
          "type": "address"
        },
        {
          "internalType": "address",
          "name": "_employer",
          "type": "address"
        },
        {
          "internalType": "uint256",
          "name": "_salary",
          "type": "uint256"
        }
      ],
      "name": "assignEmployer",
      "outputs": [],
      "stateMutability": "nonpayable",
      "type": "function"
    },
    {
      "inputs": [
        {
          "internalType": "address",
          "name": "_workerAddress",
          "type": "address"
        },
        {
          "internalType": "enum WorkerRegistry.WorkerStatus",
          "name": "_newStatus",
          "type": "uint8"
        }
      ],
      "name": "changeWorkerStatus",
      "outputs": [],
      "stateMutability": "nonpayable",
      "type": "function"
    },
    {
      "inputs": [],
      "name": "companyRegistry",
      "outputs": [
        {
          "internalType": "address",
          "name": "",
          "type": "address"
        }
      ],
      "stateMutability": "view",
      "type": "function"
    },
    {
      "inputs": [],
      "name": "getAllWorkerAddresses",
      "outputs": [
        {
          "internalType": "address[]",
          "name": "",
          "type": "address[]"
        }
      ],
      "stateMutability": "view",
      "type": "function"
    },
    {
      "inputs": [
        {
          "internalType": "uint256",
          "name": "_offset",
          "type": "uint256"
        },
        {
          "internalType": "uint256",
          "name": "_limit",
          "type": "uint256"
        }
      ],
      "name": "getPaginatedWorkers",
      "outputs": [
        {
          "components": [
            {
              "internalType": "address",
              "name": "workerAddress",
              "type": "address"
            },
            {
              "internalType": "string",
              "name": "name",
              "type": "string"
            },
            {
              "internalType": "string",
              "name": "email",
              "type": "string"
            },
            {
              "internalType": "string",
              "name": "country",
              "type": "string"
            },
            {
              "internalType": "string",
              "name": "currency",
              "type": "string"
            },
            {
              "internalType": "uint256",
              "name": "registeredAt",
              "type": "uint256"
            },
            {
              "internalType": "uint256",
              "name": "verifiedAt",
              "type": "uint256"
            },
            {
              "internalType": "enum WorkerRegistry.WorkerStatus",
              "name": "status",
              "type": "uint8"
            },
            {
              "internalType": "address",
              "name": "employer",
              "type": "address"
            },
            {
              "internalType": "uint256",
              "name": "salary",
              "type": "uint256"
            },
            {
              "internalType": "uint256",
              "name": "totalEarned",
              "type": "uint256"
            }
          ],
          "internalType": "struct WorkerRegistry.Worker[]",
          "name": "",
          "type": "tuple[]"
        }
      ],
      "stateMutability": "view",
      "type": "function"
    },
    {
      "inputs": [],
      "name": "getTotalWorkers",
      "outputs": [
        {
          "internalType": "uint256",
          "name": "",
          "type": "uint256"
        }
      ],
      "stateMutability": "view",
      "type": "function"
    },
    {
      "inputs": [
        {
          "internalType": "address",
          "name": "_workerAddress",
          "type": "address"
        }
      ],
      "name": "getWorker",
      "outputs": [
        {
          "components": [
            {
              "internalType": "address",
              "name": "workerAddress",
              "type": "address"
            },
            {
              "internalType": "string",
              "name": "name",
              "type": "string"
            },
            {
              "internalType": "string",
              "name": "email",
              "type": "string"
            },
            {
              "internalType": "string",
              "name": "country",
              "type": "string"
            },
            {
              "internalType": "string",
              "name": "currency",
              "type": "string"
            },
            {
              "internalType": "uint256",
              "name": "registeredAt",
              "type": "uint256"
            },
            {
              "internalType": "uint256",
              "name": "verifiedAt",
              "type": "uint256"
            },
            {
              "internalType": "enum WorkerRegistry.WorkerStatus",
              "name": "status",
              "type": "uint8"
            },
            {
              "internalType": "address",
              "name": "employer",
              "type": "address"
            },
            {
              "internalType": "uint256",
              "name": "salary",
              "type": "uint256"
            },
            {
              "internalType": "uint256",
              "name": "totalEarned",
              "type": "uint256"
            }
          ],
          "internalType": "struct WorkerRegistry.Worker",
          "name": "",
          "type": "tuple"
        }
      ],
      "stateMutability": "view",
      "type": "function"
    },
    {
      "inputs": [
        {
          "internalType": "address",
          "name": "_employer",
          "type": "address"
        }
      ],
      "name": "getWorkersByEmployer",
      "outputs": [
        {
          "internalType": "address[]",
          "name": "",
          "type": "address[]"
        }
      ],
      "stateMutability": "view",
      "type": "function"
    },
    {
      "inputs": [
        {
          "internalType": "enum WorkerRegistry.WorkerStatus",
          "name": "_status",
          "type": "uint8"
        }
      ],
      "name": "getWorkersByStatus",
      "outputs": [
        {
          "internalType": "address[]",
          "name": "",
          "type": "address[]"
        }
      ],
      "stateMutability": "view",
      "type": "function"
    },
    {
      "inputs": [
        {
          "internalType": "address",
          "name": "_workerAddress",
          "type": "address"
        }
      ],
      "name": "isVerifiedWorker",
      "outputs": [
        {
          "internalType": "bool",
          "name": "",
          "type": "bool"
        }
      ],
      "stateMutability": "view",
      "type": "function"
    },
    {
      "inputs": [
        {
          "internalType": "address",
          "name": "_workerAddress",
          "type": "address"
        }
      ],
      "name": "isWorker",
      "outputs": [
        {
          "internalType": "bool",
          "name": "",
          "type": "bool"
        }
      ],
      "stateMutability": "view",
      "type": "function"
    },
    {
      "inputs": [],
      "name": "kycVerifier",
      "outputs": [
        {
          "internalType": "address",
          "name": "",
          "type": "address"
        }
      ],
      "stateMutability": "view",
      "type": "function"
    },
    {
      "inputs": [],
      "name": "owner",
      "outputs": [
        {
          "internalType": "address",
          "name": "",
          "type": "address"
        }
      ],
      "stateMutability": "view",
      "type": "function"
    },
    {
      "inputs": [
        {
          "internalType": "string",
          "name": "_name",
          "type": "string"
        },
        {
          "internalType": "string",
          "name": "_email",
          "type": "string"
        },
        {
          "internalType": "string",
          "name": "_country",
          "type": "string"
        },
        {
          "internalType": "string",
          "name": "_currency",
          "type": "string"
        }
      ],
      "name": "registerWorker",
      "outputs": [],
      "stateMutability": "nonpayable",
      "type": "function"
    },
    {
      "inputs": [],
      "name": "renounceOwnership",
      "outputs": [],
      "stateMutability": "nonpayable",
      "type": "function"
    },
    {
      "inputs": [
        {
          "internalType": "address",
          "name": "_companyRegistry",
          "type": "address"
        }
      ],
      "name": "setCompanyRegistry",
      "outputs": [],
      "stateMutability": "nonpayable",
      "type": "function"
    },
    {
      "inputs": [
        {
          "internalType": "address",
          "name": "_newVerifier",
          "type": "address"
        }
      ],
      "name": "setKYCVerifier",
      "outputs": [],
      "stateMutability": "nonpayable",
      "type": "function"
    },
    {
      "inputs": [
        {
          "internalType": "address",
          "name": "newOwner",
          "type": "address"
        }
      ],
      "name": "transferOwnership",
      "outputs": [],
      "stateMutability": "nonpayable",
      "type": "function"
    },
    {
      "inputs": [
        {
          "internalType": "address",
          "name": "_workerAddress",
          "type": "address"
        },
        {
          "internalType": "uint256",
          "name": "_newSalary",
          "type": "uint256"
        }
      ],
      "name": "updateSalary",
      "outputs": [],
      "stateMutability": "nonpayable",
      "type": "function"
    },
    {
      "inputs": [
        {
          "internalType": "address",
          "name": "_workerAddress",
          "type": "address"
        },
        {
          "internalType": "uint256",
          "name": "_amount",
          "type": "uint256"
        }
      ],
      "name": "updateTotalEarned",
      "outputs": [],
      "stateMutability": "nonpayable",
      "type": "function"
    },
    {
      "inputs": [
        {
          "internalType": "string",
          "name": "_name",
          "type": "string"
        },
        {
          "internalType": "string",
          "name": "_email",
          "type": "string"
        },
        {
          "internalType": "string",
          "name": "_country",
          "type": "string"
        },
        {
          "internalType": "string",
          "name": "_currency",
          "type": "string"
        }
      ],
      "name": "updateWorkerInfo",
      "outputs": [],
      "stateMutability": "nonpayable",
      "type": "function"
    },
    {
      "inputs": [
        {
          "internalType": "address",
          "name": "_workerAddress",
          "type": "address"
        }
      ],
      "name": "verifyWorker",
      "outputs": [],
      "stateMutability": "nonpayable",
      "type": "function"
    },
    {
      "inputs": [
        {
          "internalType": "address",
          "name": "",
          "type": "address"
        }
      ],
      "name": "workers",
      "outputs": [
        {
          "internalType": "address",
          "name": "workerAddress",
          "type": "address"
        },
        {
          "internalType": "string",
          "name": "name",
          "type": "string"
        },
        {
          "internalType": "string",
          "name": "email",
          "type": "string"
        },
        {
          "internalType": "string",
          "name": "country",
          "type": "string"
        },
        {
          "internalType": "string",
          "name": "currency",
          "type": "string"
        },
        {
          "internalType": "uint256",
          "name": "registeredAt",
          "type": "uint256"
        },
        {
          "internalType": "uint256",
          "name": "verifiedAt",
          "type": "uint256"
        },
        {
          "internalType": "enum WorkerRegistry.WorkerStatus",
          "name": "status",
          "type": "uint8"
        },
        {
          "internalType": "address",
          "name": "employer",
          "type": "address"
        },
        {
          "internalType": "uint256",
          "name": "salary",
          "type": "uint256"
        },
        {
          "internalType": "uint256",
          "name": "totalEarned",
          "type": "uint256"
        }
      ],
      "stateMutability": "view",
      "type": "function"
    }
  ],
  "transactionHash": "0xe3195af45547cb4ad6ee272727e93c896f27677dcf8637d2e6046a7b69584412",
  "args": [
    "0x3231E907C51cd769857477BC5494Ee0C26E5104c",
    "0x3231E907C51cd769857477BC5494Ee0C26E5104c",
    "0x1CfE5f3c534E3b7F8A58195E59eBcF17345dfFa1"
  ],
  "numDeployments": 2,
  "solcInputHash": "c1288073c65f3d491e9e1ae245843b24",
  "bytecode": "0x608060405234801562000010575f80fd5b50604051620026ed380380620026ed833981016040819052620000339162000158565b826001600160a01b0381166200006257604051631e4fbdf760e01b81525f600482015260240160405180910390fd5b6200006d81620000ed565b5060017f9b779b17422d0df92223018b32b4d1fa46e071723d6817e2486d003becc55f00556001600160a01b038216620000ba5760405163e6c4247b60e01b815260040160405180910390fd5b600480546001600160a01b039384166001600160a01b03199182161790915560058054929093169116179055506200019f565b5f80546001600160a01b038381166001600160a01b0319831681178455604051919092169283917f8be0079c531659141344cd1fd0a4f28419497f9722a3daafe3b4186f6b6457e09190a35050565b80516001600160a01b038116811462000153575f80fd5b919050565b5f805f606084860312156200016b575f80fd5b62000176846200013c565b925062000186602085016200013c565b915062000196604085016200013c565b90509250925092565b61254080620001ad5f395ff3fe608060405234801561000f575f80fd5b5060043610610148575f3560e01c8063715018a6116100bf578063c011b1c311610079578063c011b1c3146102e2578063c51aba2b14610302578063ccd8061e14610315578063d17f641714610328578063ec6bc5be1461033b578063f2fde38b1461035b575f80fd5b8063715018a6146102505780638da5cb5b14610258578063aa1566451461027c578063b7ab6109146102a9578063b937e7cc146102bc578063beff2385146102cf575f80fd5b80632dfc280b116101105780632dfc280b146101b75780632e7573dc146101ca5780633b8f64a2146101ed5780634048a257146102005780636120303a1461022a5780636a67df471461023d575f80fd5b80631d2e96781461014c57806322003f10146101615780632330a254146101745780632b30368c1461018f5780632c3d5039146101a2575b5f80fd5b61015f61015a366004611d81565b61036e565b005b61015f61016f366004611d81565b61041b565b61017c610535565b6040519081526020015b60405180910390f35b61015f61019d366004611da9565b610545565b6101aa610672565b6040516101869190611dc2565b61015f6101c5366004611e9f565b610715565b6101dd6101d8366004611da9565b610849565b6040519015158152602001610186565b61015f6101fb366004611e9f565b6108a7565b61021361020e366004611da9565b610ad2565b6040516101869b9a99989796959493929190611fc6565b61015f610238366004611da9565b610d56565b61015f61024b366004612075565b610de8565b61015f610eea565b5f546001600160a01b03165b6040516001600160a01b039091168152602001610186565b6101dd61028a366004611da9565b6001600160a01b039081165f9081526001602052604090205416151590565b61015f6102b73660046120a6565b610efd565b600454610264906001600160a01b031681565b6101aa6102dd3660046120df565b6110c2565b6102f56102f0366004611da9565b611244565b60405161018691906121ca565b600554610264906001600160a01b031681565b6101aa610323366004611da9565b61156e565b61015f610336366004611da9565b6116bd565b61034e6103493660046121dc565b611743565b60405161018691906121fc565b61015f610369366004611da9565b611b4b565b6001600160a01b038281165f90815260016020526040902054166103a557604051630be28a4b60e11b815260040160405180910390fd5b6001600160a01b0382165f90815260016020526040812060090180548392906103cf908490612272565b9091555050604080518281524260208201526001600160a01b038416917f75e55fb89c2e9001c9ae8b1e35f47ea5989b48ffd3b11ae3457282835f21aa76910160405180910390a25050565b610423611b8a565b6001600160a01b038281165f908152600160205260409020541661045a57604051630be28a4b60e11b815260040160405180910390fd5b6001600160a01b038281165f9081526001602052604090206007015461010090041633148015906104945750336001600160a01b03831614155b156104b25760405163ea8e4eb560e01b815260040160405180910390fd5b6001600160a01b0382165f81815260016020908152604091829020600801805490859055825181815291820185905242928201929092529091907f61bd5d2d49026a3b21258b45aa08edbfb783777cbaca0c7ed53b0d6e65cca8e8906060015b60405180910390a25061053160015f805160206124eb83398151915255565b5050565b5f6105406002611ba5565b905090565b61054d611b8a565b6004546001600160a01b0316331461057857604051630689919360e51b815260040160405180910390fd5b6001600160a01b038181165f90815260016020526040902054166105af57604051630be28a4b60e11b815260040160405180910390fd5b6001600160a01b0381165f8181526001602081815260409283902060078101805460ff191690931790925542600690920182905591519081527fdd693a177a52fa3229391fffcec4b55154891837a73f4c0eb7acd8ca2d20e022910160405180910390a2806001600160a01b03167f387ff9b890eaa5f040481c8cfc024aec93158b2c92d0b8479523afd46a72be0a5f60014260405161065193929190612285565b60405180910390a261066f60015f805160206124eb83398151915255565b50565b60605f61067f6002611ba5565b90505f8167ffffffffffffffff81111561069b5761069b611e02565b6040519080825280602002602001820160405280156106c4578160200160208202803683370190505b5090505f5b8281101561070e576106dc600282611bae565b8282815181106106ee576106ee6122ae565b6001600160a01b03909216602092830291909101909101526001016106c9565b5092915050565b61071d611b8a565b335f908152600160205260409020546001600160a01b031661075257604051630be28a4b60e11b815260040160405180910390fd5b83515f036107735760405163ecd7b0d160e01b815260040160405180910390fd5b335f9081526001602081905260409091200161078f8582612345565b50335f9081526001602052604090206002016107ab8482612345565b50335f9081526001602052604090206003016107c78382612345565b50335f9081526001602052604090206004016107e38282612345565b50336001600160a01b03167f3fa769e521db403d43bdc97ff9422699fd2974b4016429453f2559e245d0ef188585858542604051610825959493929190612405565b60405180910390a261084360015f805160206124eb83398151915255565b50505050565b6001600160a01b038181165f90815260016020526040812054909116158015906108a1575060016001600160a01b0383165f9081526001602052604090206007015460ff16600381111561089f5761089f611f92565b145b92915050565b6108af611b8a565b83515f036108d05760405163ecd7b0d160e01b815260040160405180910390fd5b82515f036108f15760405163ecd7b0d160e01b815260040160405180910390fd5b335f908152600160205260409020546001600160a01b0316156109275760405163a64dc43160e01b815260040160405180910390fd5b604051806101600160405280336001600160a01b031681526020018581526020018481526020018381526020018281526020014281526020015f81526020015f600381111561097857610978611f92565b81525f602080830182905260408084018390526060909301829052338252600180825292909120835181546001600160a01b0319166001600160a01b039091161781559083015190918201906109ce9082612345565b50604082015160028201906109e39082612345565b50606082015160038201906109f89082612345565b5060808201516004820190610a0d9082612345565b5060a0820151600582015560c0820151600682015560e082015160078201805460ff19166001836003811115610a4557610a45611f92565b021790555061010082810151600783018054610100600160a81b0319166001600160a01b03909216909202179055610120820151600882015561014090910151600990910155610a96600233611bc0565b50336001600160a01b03167f4d8a56aebe90f4dc656ac807f875eda9cc565a1f3d86a81d4df54a2e1a37d3538542604051610825929190612464565b600160208190525f9182526040909120805491810180546001600160a01b0390931692610afe906122c2565b80601f0160208091040260200160405190810160405280929190818152602001828054610b2a906122c2565b8015610b755780601f10610b4c57610100808354040283529160200191610b75565b820191905f5260205f20905b815481529060010190602001808311610b5857829003601f168201915b505050505090806002018054610b8a906122c2565b80601f0160208091040260200160405190810160405280929190818152602001828054610bb6906122c2565b8015610c015780601f10610bd857610100808354040283529160200191610c01565b820191905f5260205f20905b815481529060010190602001808311610be457829003601f168201915b505050505090806003018054610c16906122c2565b80601f0160208091040260200160405190810160405280929190818152602001828054610c42906122c2565b8015610c8d5780601f10610c6457610100808354040283529160200191610c8d565b820191905f5260205f20905b815481529060010190602001808311610c7057829003601f168201915b505050505090806004018054610ca2906122c2565b80601f0160208091040260200160405190810160405280929190818152602001828054610cce906122c2565b8015610d195780601f10610cf057610100808354040283529160200191610d19565b820191905f5260205f20905b815481529060010190602001808311610cfc57829003601f168201915b5050505060058301546006840154600785015460088601546009909601549495929491935060ff8116926101009091046001600160a01b0316918b565b610d5e611bd4565b6001600160a01b038116610d855760405163e6c4247b60e01b815260040160405180910390fd5b600580546001600160a01b038381166001600160a01b0319831681179093556040519116919082907fbc632b173ae070f3012acd62362140268e6a6a2c8aad0996d1e967cbf15165b990610ddc9042815260200190565b60405180910390a35050565b610df0611b8a565b5f546001600160a01b03163314801590610e1557506004546001600160a01b03163314155b15610e335760405163ea8e4eb560e01b815260040160405180910390fd5b6001600160a01b038281165f9081526001602052604090205416610e6a57604051630be28a4b60e11b815260040160405180910390fd5b6001600160a01b0382165f908152600160208190526040909120600701805460ff81169284929160ff191690836003811115610ea857610ea8611f92565b0217905550826001600160a01b03167f387ff9b890eaa5f040481c8cfc024aec93158b2c92d0b8479523afd46a72be0a82844260405161051293929190612285565b610ef2611bd4565b610efb5f611c00565b565b610f05611b8a565b6001600160a01b038381165f9081526001602052604090205416610f3c57604051630be28a4b60e11b815260040160405180910390fd5b6005546001600160a01b031615611030576005546040516001600160a01b0384811660248301525f92839291169060440160408051601f198184030181529181526020820180516001600160e01b031663236da3b560e11b17905251610fa29190612485565b5f60405180830381855afa9150503d805f8114610fda576040519150601f19603f3d011682016040523d82523d5f602084013e610fdf565b606091505b5091509150818015610ff157505f8151115b1561102d575f8180602001905181019061100b91906124a0565b90508061102b576040516381d8419560e01b815260040160405180910390fd5b505b50505b6001600160a01b038381165f81815260016020908152604091829020600781018054610100600160a81b031916610100968916968702179055600801859055815185815242918101919091527f2738494d219ebcc0c5a2f075cd5e51b4ca9172cbce9a6613fe2c30576fd8ba90910160405180910390a36110bd60015f805160206124eb83398151915255565b505050565b60605f6110cf6002611ba5565b90505f805b82811015611147578460038111156110ee576110ee611f92565b60015f6110fc600285611bae565b6001600160a01b0316815260208101919091526040015f206007015460ff16600381111561112c5761112c611f92565b0361113f578161113b816124bf565b9250505b6001016110d4565b505f8167ffffffffffffffff81111561116257611162611e02565b60405190808252806020026020018201604052801561118b578160200160208202803683370190505b5090505f805b84811015611239578660038111156111ab576111ab611f92565b60015f6111b9600285611bae565b6001600160a01b0316815260208101919091526040015f206007015460ff1660038111156111e9576111e9611f92565b03611231576111f9600282611bae565b83838151811061120b5761120b6122ae565b6001600160a01b03909216602092830291909101909101528161122d816124bf565b9250505b600101611191565b509095945050505050565b61124c611cf0565b6001600160a01b038281165f908152600160205260409020541661128357604051630be28a4b60e11b815260040160405180910390fd5b6001600160a01b038083165f9081526001602081815260409283902083516101608101909452805490941683529083018054929392918401916112c5906122c2565b80601f01602080910402602001604051908101604052809291908181526020018280546112f1906122c2565b801561133c5780601f106113135761010080835404028352916020019161133c565b820191905f5260205f20905b81548152906001019060200180831161131f57829003601f168201915b50505050508152602001600282018054611355906122c2565b80601f0160208091040260200160405190810160405280929190818152602001828054611381906122c2565b80156113cc5780601f106113a3576101008083540402835291602001916113cc565b820191905f5260205f20905b8154815290600101906020018083116113af57829003601f168201915b505050505081526020016003820180546113e5906122c2565b80601f0160208091040260200160405190810160405280929190818152602001828054611411906122c2565b801561145c5780601f106114335761010080835404028352916020019161145c565b820191905f5260205f20905b81548152906001019060200180831161143f57829003601f168201915b50505050508152602001600482018054611475906122c2565b80601f01602080910402602001604051908101604052809291908181526020018280546114a1906122c2565b80156114ec5780601f106114c3576101008083540402835291602001916114ec565b820191905f5260205f20905b8154815290600101906020018083116114cf57829003601f168201915b50505091835250506005820154602082015260068201546040820152600782015460609091019060ff16600381111561152757611527611f92565b600381111561153857611538611f92565b8152600782015461010090046001600160a01b031660208201526008820154604082015260099091015460609091015292915050565b60605f61157b6002611ba5565b90505f805b828110156115df576001600160a01b03851660015f6115a0600285611bae565b6001600160a01b03908116825260208201929092526040015f2060070154610100900416036115d757816115d3816124bf565b9250505b600101611580565b505f8167ffffffffffffffff8111156115fa576115fa611e02565b604051908082528060200260200182016040528015611623578160200160208202803683370190505b5090505f805b84811015611239576001600160a01b03871660015f611649600285611bae565b6001600160a01b03908116825260208201929092526040015f2060070154610100900416036116b55761167d600282611bae565b83838151811061168f5761168f6122ae565b6001600160a01b0390921660209283029190910190910152816116b1816124bf565b9250505b600101611629565b6116c5611bd4565b6001600160a01b0381166116ec5760405163e6c4247b60e01b815260040160405180910390fd5b600480546001600160a01b038381166001600160a01b0319831681179093556040519116919082907f2d8c94424436c56408de6e8d4e27e7e8567c228ca8ed73bab05f35a7b0804a8090610ddc9042815260200190565b60605f6117506002611ba5565b905080841061179257604080515f8082526020820190925290611789565b611776611cf0565b81526020019060019003908161176e5790505b509150506108a1565b5f61179d8486612272565b9050818111156117aa5750805b5f6117b586836124d7565b67ffffffffffffffff8111156117cd576117cd611e02565b60405190808252806020026020018201604052801561180657816020015b6117f3611cf0565b8152602001906001900390816117eb5790505b5090505f865b83811015611b3f5760015f611822600284611bae565b6001600160a01b03908116825260208083019390935260409182015f2082516101608101909352805490911682526001810180549293919291840191611867906122c2565b80601f0160208091040260200160405190810160405280929190818152602001828054611893906122c2565b80156118de5780601f106118b5576101008083540402835291602001916118de565b820191905f5260205f20905b8154815290600101906020018083116118c157829003601f168201915b505050505081526020016002820180546118f7906122c2565b80601f0160208091040260200160405190810160405280929190818152602001828054611923906122c2565b801561196e5780601f106119455761010080835404028352916020019161196e565b820191905f5260205f20905b81548152906001019060200180831161195157829003601f168201915b50505050508152602001600382018054611987906122c2565b80601f01602080910402602001604051908101604052809291908181526020018280546119b3906122c2565b80156119fe5780601f106119d5576101008083540402835291602001916119fe565b820191905f5260205f20905b8154815290600101906020018083116119e157829003601f168201915b50505050508152602001600482018054611a17906122c2565b80601f0160208091040260200160405190810160405280929190818152602001828054611a43906122c2565b8015611a8e5780601f10611a6557610100808354040283529160200191611a8e565b820191905f5260205f20905b815481529060010190602001808311611a7157829003601f168201915b50505091835250506005820154602082015260068201546040820152600782015460609091019060ff166003811115611ac957611ac9611f92565b6003811115611ada57611ada611f92565b8152600782015461010090046001600160a01b03166020820152600882015460408201526009909101546060909101528351849084908110611b1e57611b1e6122ae565b60200260200101819052508180611b34906124bf565b92505060010161180c565b50909695505050505050565b611b53611bd4565b6001600160a01b038116611b8157604051631e4fbdf760e01b81525f60048201526024015b60405180910390fd5b61066f81611c00565b611b92611c4f565b60025f805160206124eb83398151915255565b5f6108a1825490565b5f611bb98383611c7e565b9392505050565b5f611bb9836001600160a01b038416611ca4565b5f546001600160a01b03163314610efb5760405163118cdaa760e01b8152336004820152602401611b78565b5f80546001600160a01b038381166001600160a01b0319831681178455604051919092169283917f8be0079c531659141344cd1fd0a4f28419497f9722a3daafe3b4186f6b6457e09190a35050565b5f805160206124eb83398151915254600203610efb57604051633ee5aeb560e01b815260040160405180910390fd5b5f825f018281548110611c9357611c936122ae565b905f5260205f200154905092915050565b5f818152600183016020526040812054611ce957508154600181810184555f8481526020808220909301849055845484825282860190935260409020919091556108a1565b505f6108a1565b6040518061016001604052805f6001600160a01b03168152602001606081526020016060815260200160608152602001606081526020015f81526020015f81526020015f6003811115611d4557611d45611f92565b81526020015f6001600160a01b031681526020015f81526020015f81525090565b80356001600160a01b0381168114611d7c575f80fd5b919050565b5f8060408385031215611d92575f80fd5b611d9b83611d66565b946020939093013593505050565b5f60208284031215611db9575f80fd5b611bb982611d66565b602080825282518282018190525f9190848201906040850190845b81811015611b3f5783516001600160a01b031683529284019291840191600101611ddd565b634e487b7160e01b5f52604160045260245ffd5b5f82601f830112611e25575f80fd5b813567ffffffffffffffff80821115611e4057611e40611e02565b604051601f8301601f19908116603f01168101908282118183101715611e6857611e68611e02565b81604052838152866020858801011115611e80575f80fd5b836020870160208301375f602085830101528094505050505092915050565b5f805f8060808587031215611eb2575f80fd5b843567ffffffffffffffff80821115611ec9575f80fd5b611ed588838901611e16565b95506020870135915080821115611eea575f80fd5b611ef688838901611e16565b94506040870135915080821115611f0b575f80fd5b611f1788838901611e16565b93506060870135915080821115611f2c575f80fd5b50611f3987828801611e16565b91505092959194509250565b5f5b83811015611f5f578181015183820152602001611f47565b50505f910152565b5f8151808452611f7e816020860160208601611f45565b601f01601f19169290920160200192915050565b634e487b7160e01b5f52602160045260245ffd5b60048110611fc257634e487b7160e01b5f52602160045260245ffd5b9052565b6001600160a01b038c81168252610160602083018190525f91611feb8483018f611f67565b91508382036040850152611fff828e611f67565b91508382036060850152612013828d611f67565b91508382036080850152612027828c611f67565b92508960a08501528860c085015261204260e0850189611fa6565b9590951661010083015261012082019390935261014001529998505050505050505050565b803560048110611d7c575f80fd5b5f8060408385031215612086575f80fd5b61208f83611d66565b915061209d60208401612067565b90509250929050565b5f805f606084860312156120b8575f80fd5b6120c184611d66565b92506120cf60208501611d66565b9150604084013590509250925092565b5f602082840312156120ef575f80fd5b611bb982612067565b80516001600160a01b031682525f610160602083015181602086015261212082860182611f67565b9150506040830151848203604086015261213a8282611f67565b915050606083015184820360608601526121548282611f67565b9150506080830151848203608086015261216e8282611f67565b91505060a083015160a085015260c083015160c085015260e083015161219760e0860182611fa6565b50610100838101516001600160a01b03169085015261012080840151908501526101409283015192909301919091525090565b602081525f611bb960208301846120f8565b5f80604083850312156121ed575f80fd5b50508035926020909101359150565b5f60208083016020845280855180835260408601915060408160051b8701019250602087015f5b8281101561225157603f1988860301845261223f8583516120f8565b94509285019290850190600101612223565b5092979650505050505050565b634e487b7160e01b5f52601160045260245ffd5b808201808211156108a1576108a161225e565b606081016122938286611fa6565b6122a06020830185611fa6565b826040830152949350505050565b634e487b7160e01b5f52603260045260245ffd5b600181811c908216806122d657607f821691505b6020821081036122f457634e487b7160e01b5f52602260045260245ffd5b50919050565b601f8211156110bd57805f5260205f20601f840160051c8101602085101561231f5750805b601f840160051c820191505b8181101561233e575f815560010161232b565b5050505050565b815167ffffffffffffffff81111561235f5761235f611e02565b6123738161236d84546122c2565b846122fa565b602080601f8311600181146123a6575f841561238f5750858301515b5f19600386901b1c1916600185901b1785556123fd565b5f85815260208120601f198616915b828110156123d4578886015182559484019460019091019084016123b5565b50858210156123f157878501515f19600388901b60f8161c191681555b505060018460011b0185555b505050505050565b60a081525f61241760a0830188611f67565b82810360208401526124298188611f67565b9050828103604084015261243d8187611f67565b905082810360608401526124518186611f67565b9150508260808301529695505050505050565b604081525f6124766040830185611f67565b90508260208301529392505050565b5f8251612496818460208701611f45565b9190910192915050565b5f602082840312156124b0575f80fd5b81518015158114611bb9575f80fd5b5f600182016124d0576124d061225e565b5060010190565b818103818111156108a1576108a161225e56fe9b779b17422d0df92223018b32b4d1fa46e071723d6817e2486d003becc55f00a2646970667358221220b3554a0f00f0d3a6934caa5ab101b4ce216d6482d9206d1b4d113d1291b0706364736f6c63430008180033",
  "devdoc": {
    "details": "Registry for workers participating in the payroll system Handles worker registration, KYC verification, and salary management",
    "errors": {
      "OwnableInvalidOwner(address)": [
        {
          "details": "The owner is not a valid owner account. (eg. `address(0)`)"
        }
      ],
      "OwnableUnauthorizedAccount(address)": [
        {
          "details": "The caller account is not authorized to perform an operation."
        }
      ],
      "ReentrancyGuardReentrantCall()": [
        {
          "details": "Unauthorized reentrant call."
        }
      ]
    },
    "kind": "dev",
    "methods": {
      "assignEmployer(address,address,uint256)": {
        "details": "Assign worker to an employer (called by employer or system)",
        "params": {
          "_employer": "Address of the employer",
          "_salary": "Salary in USDC (6 decimals)",
          "_workerAddress": "Address of the worker"
        }
      },
      "changeWorkerStatus(address,uint8)": {
        "details": "Change worker status (only owner or KYC verifier)",
        "params": {
          "_newStatus": "New status",
          "_workerAddress": "Address of the worker"
        }
      },
      "constructor": {
        "details": "Constructor",
        "params": {
          "_companyRegistry": "Company registry contract address",
          "_initialOwner": "Initial owner of the contract",
          "_kycVerifier": "Initial KYC verifier address"
        }
      },
      "getAllWorkerAddresses()": {
        "details": "Get all registered worker addresses"
      },
      "getPaginatedWorkers(uint256,uint256)": {
        "details": "Get paginated list of workers",
        "params": {
          "_limit": "Number of workers to return",
          "_offset": "Starting index"
        }
      },
      "getTotalWorkers()": {
        "details": "Get total number of registered workers"
      },
      "getWorker(address)": {
        "details": "Get worker details",
        "params": {
          "_workerAddress": "Address of the worker"
        }
      },
      "getWorkersByEmployer(address)": {
        "details": "Get workers by employer",
        "params": {
          "_employer": "Address of the employer"
        }
      },
      "getWorkersByStatus(uint8)": {
        "details": "Get workers by status",
        "params": {
          "_status": "Status to filter by"
        }
      },
      "isVerifiedWorker(address)": {
        "details": "Check if a worker is verified (active status)",
        "params": {
          "_workerAddress": "Address to check"
        }
      },
      "isWorker(address)": {
        "details": "Check if an address is a registered worker",
        "params": {
          "_workerAddress": "Address to check"
        }
      },
      "owner()": {
        "details": "Returns the address of the current owner."
      },
      "registerWorker(string,string,string,string)": {
        "details": "Register a new worker",
        "params": {
          "_country": "Worker country",
          "_currency": "Preferred payout currency",
          "_email": "Worker email",
          "_name": "Worker name"
        }
      },
      "renounceOwnership()": {
        "details": "Leaves the contract without owner. It will not be possible to call `onlyOwner` functions. Can only be called by the current owner. NOTE: Renouncing ownership will leave the contract without an owner, thereby disabling any functionality that is only available to the owner."
      },
      "setCompanyRegistry(address)": {
        "details": "Set company registry address (only owner)",
        "params": {
          "_companyRegistry": "New company registry address"
        }
      },
      "setKYCVerifier(address)": {
        "details": "Set new KYC verifier (only owner)",
        "params": {
          "_newVerifier": "New verifier address"
        }
      },
      "transferOwnership(address)": {
        "details": "Transfers ownership of the contract to a new account (`newOwner`). Can only be called by the current owner."
      },
      "updateSalary(address,uint256)": {
        "details": "Update worker salary",
        "params": {
          "_newSalary": "New salary in USDC (6 decimals)",
          "_workerAddress": "Address of the worker"
        }
      },
      "updateTotalEarned(address,uint256)": {
        "details": "Update total earned amount for a worker (called by PayrollContract)",
        "params": {
          "_amount": "Amount earned",
          "_workerAddress": "Address of the worker"
        }
      },
      "updateWorkerInfo(string,string,string,string)": {
        "details": "Update worker information",
        "params": {
          "_country": "New country",
          "_currency": "New currency",
          "_email": "New email",
          "_name": "New name"
        }
      },
      "verifyWorker(address)": {
        "details": "Verify a worker (KYC approved)",
        "params": {
          "_workerAddress": "Address of the worker to verify"
        }
      }
    },
    "title": "WorkerRegistry",
    "version": 1
  },
  "userdoc": {
    "kind": "user",
    "methods": {},
    "version": 1
  },
  "storageLayout": {
    "storage": [
      {
        "astId": 8,
        "contract": "contracts/WorkerRegistry.sol:WorkerRegistry",
        "label": "_owner",
        "offset": 0,
        "slot": "0",
        "type": "t_address"
      },
      {
        "astId": 7405,
        "contract": "contracts/WorkerRegistry.sol:WorkerRegistry",
        "label": "workers",
        "offset": 0,
        "slot": "1",
        "type": "t_mapping(t_address,t_struct(Worker)7400_storage)"
      },
      {
        "astId": 7408,
        "contract": "contracts/WorkerRegistry.sol:WorkerRegistry",
        "label": "workerAddresses",
        "offset": 0,
        "slot": "2",
        "type": "t_struct(AddressSet)6332_storage"
      },
      {
        "astId": 7410,
        "contract": "contracts/WorkerRegistry.sol:WorkerRegistry",
        "label": "kycVerifier",
        "offset": 0,
        "slot": "4",
        "type": "t_address"
      },
      {
        "astId": 7412,
        "contract": "contracts/WorkerRegistry.sol:WorkerRegistry",
        "label": "companyRegistry",
        "offset": 0,
        "slot": "5",
        "type": "t_address"
      }
    ],
    "types": {
      "t_address": {
        "encoding": "inplace",
        "label": "address",
        "numberOfBytes": "20"
      },
      "t_array(t_bytes32)dyn_storage": {
        "base": "t_bytes32",
        "encoding": "dynamic_array",
        "label": "bytes32[]",
        "numberOfBytes": "32"
      },
      "t_bytes32": {
        "encoding": "inplace",
        "label": "bytes32",
        "numberOfBytes": "32"
      },
      "t_enum(WorkerStatus)7376": {
        "encoding": "inplace",
        "label": "enum WorkerRegistry.WorkerStatus",
        "numberOfBytes": "1"
      },
      "t_mapping(t_address,t_struct(Worker)7400_storage)": {
        "encoding": "mapping",
        "key": "t_address",
        "label": "mapping(address => struct WorkerRegistry.Worker)",
        "numberOfBytes": "32",
        "value": "t_struct(Worker)7400_storage"
      },
      "t_mapping(t_bytes32,t_uint256)": {
        "encoding": "mapping",
        "key": "t_bytes32",
        "label": "mapping(bytes32 => uint256)",
        "numberOfBytes": "32",
        "value": "t_uint256"
      },
      "t_string_storage": {
        "encoding": "bytes",
        "label": "string",
        "numberOfBytes": "32"
      },
      "t_struct(AddressSet)6332_storage": {
        "encoding": "inplace",
        "label": "struct EnumerableSet.AddressSet",
        "members": [
          {
            "astId": 6331,
            "contract": "contracts/WorkerRegistry.sol:WorkerRegistry",
            "label": "_inner",
            "offset": 0,
            "slot": "0",
            "type": "t_struct(Set)5664_storage"
          }
        ],
        "numberOfBytes": "64"
      },
      "t_struct(Set)5664_storage": {
        "encoding": "inplace",
        "label": "struct EnumerableSet.Set",
        "members": [
          {
            "astId": 5659,
            "contract": "contracts/WorkerRegistry.sol:WorkerRegistry",
            "label": "_values",
            "offset": 0,
            "slot": "0",
            "type": "t_array(t_bytes32)dyn_storage"
          },
          {
            "astId": 5663,
            "contract": "contracts/WorkerRegistry.sol:WorkerRegistry",
            "label": "_positions",
            "offset": 0,
            "slot": "1",
            "type": "t_mapping(t_bytes32,t_uint256)"
          }
        ],
        "numberOfBytes": "64"
      },
      "t_struct(Worker)7400_storage": {
        "encoding": "inplace",
        "label": "struct WorkerRegistry.Worker",
        "members": [
          {
            "astId": 7378,
            "contract": "contracts/WorkerRegistry.sol:WorkerRegistry",
            "label": "workerAddress",
            "offset": 0,
            "slot": "0",
            "type": "t_address"
          },
          {
            "astId": 7380,
            "contract": "contracts/WorkerRegistry.sol:WorkerRegistry",
            "label": "name",
            "offset": 0,
            "slot": "1",
            "type": "t_string_storage"
          },
          {
            "astId": 7382,
            "contract": "contracts/WorkerRegistry.sol:WorkerRegistry",
            "label": "email",
            "offset": 0,
            "slot": "2",
            "type": "t_string_storage"
          },
          {
            "astId": 7384,
            "contract": "contracts/WorkerRegistry.sol:WorkerRegistry",
            "label": "country",
            "offset": 0,
            "slot": "3",
            "type": "t_string_storage"
          },
          {
            "astId": 7386,
            "contract": "contracts/WorkerRegistry.sol:WorkerRegistry",
            "label": "currency",
            "offset": 0,
            "slot": "4",
            "type": "t_string_storage"
          },
          {
            "astId": 7388,
            "contract": "contracts/WorkerRegistry.sol:WorkerRegistry",
            "label": "registeredAt",
            "offset": 0,
            "slot": "5",
            "type": "t_uint256"
          },
          {
            "astId": 7390,
            "contract": "contracts/WorkerRegistry.sol:WorkerRegistry",
            "label": "verifiedAt",
            "offset": 0,
            "slot": "6",
            "type": "t_uint256"
          },
          {
            "astId": 7393,
            "contract": "contracts/WorkerRegistry.sol:WorkerRegistry",
            "label": "status",
            "offset": 0,
            "slot": "7",
            "type": "t_enum(WorkerStatus)7376"
          },
          {
            "astId": 7395,
            "contract": "contracts/WorkerRegistry.sol:WorkerRegistry",
            "label": "employer",
            "offset": 1,
            "slot": "7",
            "type": "t_address"
          },
          {
            "astId": 7397,
            "contract": "contracts/WorkerRegistry.sol:WorkerRegistry",
            "label": "salary",
            "offset": 0,
            "slot": "8",
            "type": "t_uint256"
          },
          {
            "astId": 7399,
            "contract": "contracts/WorkerRegistry.sol:WorkerRegistry",
            "label": "totalEarned",
            "offset": 0,
            "slot": "9",
            "type": "t_uint256"
          }
        ],
        "numberOfBytes": "320"
      },
      "t_uint256": {
        "encoding": "inplace",
        "label": "uint256",
        "numberOfBytes": "32"
      }
    }
  }
}